{
  "_format": "hh-sol-artifact-1",
  "contractName": "MyEpicGame",
  "sourceName": "contracts/MyEpicGame.sol",
  "abi": [
    {
      "inputs": [
        {
          "internalType": "string[]",
          "name": "characterNames",
          "type": "string[]"
        },
        {
          "internalType": "string[]",
          "name": "characterImageURIs",
          "type": "string[]"
        },
        {
          "internalType": "uint256[]",
          "name": "characterHp",
          "type": "uint256[]"
        },
        {
          "internalType": "uint256[]",
          "name": "characterAttackDmg",
          "type": "uint256[]"
        },
        {
          "internalType": "string",
          "name": "bossName",
          "type": "string"
        },
        {
          "internalType": "string",
          "name": "bossImageURI",
          "type": "string"
        },
        {
          "internalType": "uint256",
          "name": "bossHp",
          "type": "uint256"
        },
        {
          "internalType": "uint256",
          "name": "bossAttackDamage",
          "type": "uint256"
        }
      ],
      "stateMutability": "nonpayable",
      "type": "constructor"
    },
    {
      "inputs": [
        {
          "internalType": "address",
          "name": "sender",
          "type": "address"
        },
        {
          "internalType": "uint256",
          "name": "tokenId",
          "type": "uint256"
        },
        {
          "internalType": "address",
          "name": "owner",
          "type": "address"
        }
      ],
      "name": "ERC721IncorrectOwner",
      "type": "error"
    },
    {
      "inputs": [
        {
          "internalType": "address",
          "name": "operator",
          "type": "address"
        },
        {
          "internalType": "uint256",
          "name": "tokenId",
          "type": "uint256"
        }
      ],
      "name": "ERC721InsufficientApproval",
      "type": "error"
    },
    {
      "inputs": [
        {
          "internalType": "address",
          "name": "approver",
          "type": "address"
        }
      ],
      "name": "ERC721InvalidApprover",
      "type": "error"
    },
    {
      "inputs": [
        {
          "internalType": "address",
          "name": "operator",
          "type": "address"
        }
      ],
      "name": "ERC721InvalidOperator",
      "type": "error"
    },
    {
      "inputs": [
        {
          "internalType": "address",
          "name": "owner",
          "type": "address"
        }
      ],
      "name": "ERC721InvalidOwner",
      "type": "error"
    },
    {
      "inputs": [
        {
          "internalType": "address",
          "name": "receiver",
          "type": "address"
        }
      ],
      "name": "ERC721InvalidReceiver",
      "type": "error"
    },
    {
      "inputs": [
        {
          "internalType": "address",
          "name": "sender",
          "type": "address"
        }
      ],
      "name": "ERC721InvalidSender",
      "type": "error"
    },
    {
      "inputs": [
        {
          "internalType": "uint256",
          "name": "tokenId",
          "type": "uint256"
        }
      ],
      "name": "ERC721NonexistentToken",
      "type": "error"
    },
    {
      "anonymous": false,
      "inputs": [
        {
          "indexed": true,
          "internalType": "address",
          "name": "owner",
          "type": "address"
        },
        {
          "indexed": true,
          "internalType": "address",
          "name": "approved",
          "type": "address"
        },
        {
          "indexed": true,
          "internalType": "uint256",
          "name": "tokenId",
          "type": "uint256"
        }
      ],
      "name": "Approval",
      "type": "event"
    },
    {
      "anonymous": false,
      "inputs": [
        {
          "indexed": true,
          "internalType": "address",
          "name": "owner",
          "type": "address"
        },
        {
          "indexed": true,
          "internalType": "address",
          "name": "operator",
          "type": "address"
        },
        {
          "indexed": false,
          "internalType": "bool",
          "name": "approved",
          "type": "bool"
        }
      ],
      "name": "ApprovalForAll",
      "type": "event"
    },
    {
      "anonymous": false,
      "inputs": [
        {
          "indexed": false,
          "internalType": "address",
          "name": "sender",
          "type": "address"
        },
        {
          "indexed": false,
          "internalType": "uint256",
          "name": "newBossHp",
          "type": "uint256"
        },
        {
          "indexed": false,
          "internalType": "uint256",
          "name": "newPlayerHp",
          "type": "uint256"
        }
      ],
      "name": "AttackComplete",
      "type": "event"
    },
    {
      "anonymous": false,
      "inputs": [
        {
          "indexed": false,
          "internalType": "address",
          "name": "sender",
          "type": "address"
        },
        {
          "indexed": false,
          "internalType": "uint256",
          "name": "tokenId",
          "type": "uint256"
        },
        {
          "indexed": false,
          "internalType": "uint256",
          "name": "characterIndex",
          "type": "uint256"
        }
      ],
      "name": "CharacterNFTMinted",
      "type": "event"
    },
    {
      "anonymous": false,
      "inputs": [
        {
          "indexed": true,
          "internalType": "address",
          "name": "from",
          "type": "address"
        },
        {
          "indexed": true,
          "internalType": "address",
          "name": "to",
          "type": "address"
        },
        {
          "indexed": true,
          "internalType": "uint256",
          "name": "tokenId",
          "type": "uint256"
        }
      ],
      "name": "Transfer",
      "type": "event"
    },
    {
      "inputs": [
        {
          "internalType": "address",
          "name": "to",
          "type": "address"
        },
        {
          "internalType": "uint256",
          "name": "tokenId",
          "type": "uint256"
        }
      ],
      "name": "approve",
      "outputs": [],
      "stateMutability": "nonpayable",
      "type": "function"
    },
    {
      "inputs": [],
      "name": "attackBoss",
      "outputs": [],
      "stateMutability": "nonpayable",
      "type": "function"
    },
    {
      "inputs": [
        {
          "internalType": "address",
          "name": "owner",
          "type": "address"
        }
      ],
      "name": "balanceOf",
      "outputs": [
        {
          "internalType": "uint256",
          "name": "",
          "type": "uint256"
        }
      ],
      "stateMutability": "view",
      "type": "function"
    },
    {
      "inputs": [],
      "name": "bigBoss",
      "outputs": [
        {
          "internalType": "string",
          "name": "name",
          "type": "string"
        },
        {
          "internalType": "string",
          "name": "imageURI",
          "type": "string"
        },
        {
          "internalType": "uint256",
          "name": "hp",
          "type": "uint256"
        },
        {
          "internalType": "uint256",
          "name": "maxHp",
          "type": "uint256"
        },
        {
          "internalType": "uint256",
          "name": "attackDamage",
          "type": "uint256"
        }
      ],
      "stateMutability": "view",
      "type": "function"
    },
    {
      "inputs": [],
      "name": "checkIfUserHasNFT",
      "outputs": [
        {
          "components": [
            {
              "internalType": "uint256",
              "name": "characterIndex",
              "type": "uint256"
            },
            {
              "internalType": "string",
              "name": "name",
              "type": "string"
            },
            {
              "internalType": "string",
              "name": "imageURI",
              "type": "string"
            },
            {
              "internalType": "uint256",
              "name": "hp",
              "type": "uint256"
            },
            {
              "internalType": "uint256",
              "name": "maxHp",
              "type": "uint256"
            },
            {
              "internalType": "uint256",
              "name": "attackDamage",
              "type": "uint256"
            }
          ],
          "internalType": "struct MyEpicGame.CharacterAttributes",
          "name": "",
          "type": "tuple"
        }
      ],
      "stateMutability": "view",
      "type": "function"
    },
    {
      "inputs": [],
      "name": "getAllDefaultCharacters",
      "outputs": [
        {
          "components": [
            {
              "internalType": "uint256",
              "name": "characterIndex",
              "type": "uint256"
            },
            {
              "internalType": "string",
              "name": "name",
              "type": "string"
            },
            {
              "internalType": "string",
              "name": "imageURI",
              "type": "string"
            },
            {
              "internalType": "uint256",
              "name": "hp",
              "type": "uint256"
            },
            {
              "internalType": "uint256",
              "name": "maxHp",
              "type": "uint256"
            },
            {
              "internalType": "uint256",
              "name": "attackDamage",
              "type": "uint256"
            }
          ],
          "internalType": "struct MyEpicGame.CharacterAttributes[]",
          "name": "",
          "type": "tuple[]"
        }
      ],
      "stateMutability": "view",
      "type": "function"
    },
    {
      "inputs": [
        {
          "internalType": "uint256",
          "name": "tokenId",
          "type": "uint256"
        }
      ],
      "name": "getApproved",
      "outputs": [
        {
          "internalType": "address",
          "name": "",
          "type": "address"
        }
      ],
      "stateMutability": "view",
      "type": "function"
    },
    {
      "inputs": [],
      "name": "getBigBoss",
      "outputs": [
        {
          "components": [
            {
              "internalType": "string",
              "name": "name",
              "type": "string"
            },
            {
              "internalType": "string",
              "name": "imageURI",
              "type": "string"
            },
            {
              "internalType": "uint256",
              "name": "hp",
              "type": "uint256"
            },
            {
              "internalType": "uint256",
              "name": "maxHp",
              "type": "uint256"
            },
            {
              "internalType": "uint256",
              "name": "attackDamage",
              "type": "uint256"
            }
          ],
          "internalType": "struct MyEpicGame.BigBoss",
          "name": "",
          "type": "tuple"
        }
      ],
      "stateMutability": "view",
      "type": "function"
    },
    {
      "inputs": [
        {
          "internalType": "address",
          "name": "owner",
          "type": "address"
        },
        {
          "internalType": "address",
          "name": "operator",
          "type": "address"
        }
      ],
      "name": "isApprovedForAll",
      "outputs": [
        {
          "internalType": "bool",
          "name": "",
          "type": "bool"
        }
      ],
      "stateMutability": "view",
      "type": "function"
    },
    {
      "inputs": [
        {
          "internalType": "uint256",
          "name": "_characterIndex",
          "type": "uint256"
        }
      ],
      "name": "mintCharacterNFT",
      "outputs": [],
      "stateMutability": "nonpayable",
      "type": "function"
    },
    {
      "inputs": [],
      "name": "name",
      "outputs": [
        {
          "internalType": "string",
          "name": "",
          "type": "string"
        }
      ],
      "stateMutability": "view",
      "type": "function"
    },
    {
      "inputs": [
        {
          "internalType": "uint256",
          "name": "",
          "type": "uint256"
        }
      ],
      "name": "nftHolderAttributes",
      "outputs": [
        {
          "internalType": "uint256",
          "name": "characterIndex",
          "type": "uint256"
        },
        {
          "internalType": "string",
          "name": "name",
          "type": "string"
        },
        {
          "internalType": "string",
          "name": "imageURI",
          "type": "string"
        },
        {
          "internalType": "uint256",
          "name": "hp",
          "type": "uint256"
        },
        {
          "internalType": "uint256",
          "name": "maxHp",
          "type": "uint256"
        },
        {
          "internalType": "uint256",
          "name": "attackDamage",
          "type": "uint256"
        }
      ],
      "stateMutability": "view",
      "type": "function"
    },
    {
      "inputs": [
        {
          "internalType": "address",
          "name": "",
          "type": "address"
        }
      ],
      "name": "nftHolders",
      "outputs": [
        {
          "internalType": "uint256",
          "name": "",
          "type": "uint256"
        }
      ],
      "stateMutability": "view",
      "type": "function"
    },
    {
      "inputs": [
        {
          "internalType": "uint256",
          "name": "tokenId",
          "type": "uint256"
        }
      ],
      "name": "ownerOf",
      "outputs": [
        {
          "internalType": "address",
          "name": "",
          "type": "address"
        }
      ],
      "stateMutability": "view",
      "type": "function"
    },
    {
      "inputs": [],
      "name": "reviveCharacter",
      "outputs": [],
      "stateMutability": "nonpayable",
      "type": "function"
    },
    {
      "inputs": [
        {
          "internalType": "address",
          "name": "from",
          "type": "address"
        },
        {
          "internalType": "address",
          "name": "to",
          "type": "address"
        },
        {
          "internalType": "uint256",
          "name": "tokenId",
          "type": "uint256"
        }
      ],
      "name": "safeTransferFrom",
      "outputs": [],
      "stateMutability": "nonpayable",
      "type": "function"
    },
    {
      "inputs": [
        {
          "internalType": "address",
          "name": "from",
          "type": "address"
        },
        {
          "internalType": "address",
          "name": "to",
          "type": "address"
        },
        {
          "internalType": "uint256",
          "name": "tokenId",
          "type": "uint256"
        },
        {
          "internalType": "bytes",
          "name": "data",
          "type": "bytes"
        }
      ],
      "name": "safeTransferFrom",
      "outputs": [],
      "stateMutability": "nonpayable",
      "type": "function"
    },
    {
      "inputs": [
        {
          "internalType": "address",
          "name": "operator",
          "type": "address"
        },
        {
          "internalType": "bool",
          "name": "approved",
          "type": "bool"
        }
      ],
      "name": "setApprovalForAll",
      "outputs": [],
      "stateMutability": "nonpayable",
      "type": "function"
    },
    {
      "inputs": [
        {
          "internalType": "bytes4",
          "name": "interfaceId",
          "type": "bytes4"
        }
      ],
      "name": "supportsInterface",
      "outputs": [
        {
          "internalType": "bool",
          "name": "",
          "type": "bool"
        }
      ],
      "stateMutability": "view",
      "type": "function"
    },
    {
      "inputs": [],
      "name": "symbol",
      "outputs": [
        {
          "internalType": "string",
          "name": "",
          "type": "string"
        }
      ],
      "stateMutability": "view",
      "type": "function"
    },
    {
      "inputs": [
        {
          "internalType": "uint256",
          "name": "_tokenId",
          "type": "uint256"
        }
      ],
      "name": "tokenURI",
      "outputs": [
        {
          "internalType": "string",
          "name": "",
          "type": "string"
        }
      ],
      "stateMutability": "view",
      "type": "function"
    },
    {
      "inputs": [
        {
          "internalType": "address",
          "name": "from",
          "type": "address"
        },
        {
          "internalType": "address",
          "name": "to",
          "type": "address"
        },
        {
          "internalType": "uint256",
          "name": "tokenId",
          "type": "uint256"
        }
      ],
      "name": "transferFrom",
      "outputs": [],
      "stateMutability": "nonpayable",
      "type": "function"
    }
  ],
  "bytecode": "0x60806040526000600f553480156200001657600080fd5b5060405162005bab38038062005bab83398181016040528101906200003c919062000ac2565b6040518060400160405280600681526020017f4865726f657300000000000000000000000000000000000000000000000000008152506040518060400160405280600481526020017f4845524f000000000000000000000000000000000000000000000000000000008152508160009081620000b9919062000e86565b508060019081620000cb919062000e86565b50505060005b8851811015620005d55760076040518060c001604052808381526020018b848151811062000104576200010362000f6d565b5b602002602001015181526020018a848151811062000127576200012662000f6d565b5b602002602001015181526020018984815181106200014a576200014962000f6d565b5b602002602001015181526020018984815181106200016d576200016c62000f6d565b5b6020026020010151815260200188848151811062000190576200018f62000f6d565b5b60200260200101518152509080600181540180825580915050600190039060005260206000209060060201600090919091909150600082015181600001556020820151816001019081620001e5919062000e86565b506040820151816002019081620001fd919062000e86565b50606082015181600301556080820151816004015560a0820151816005015550506040518060a0016040528086815260200185815260200184815260200184815260200183815250600a60008201518160000190816200025e919062000e86565b50602082015181600101908162000276919062000e86565b50604082015181600201556060820151816003015560808201518160040155905050620003f46040518060600160405280602a815260200162005b81602a9139600a6000018054620002c89062000c7f565b80601f0160208091040260200160405190810160405280929190818152602001828054620002f69062000c7f565b8015620003475780601f106200031b5761010080835404028352916020019162000347565b820191906000526020600020905b8154815290600101906020018083116200032957829003601f168201915b5050505050600a60020154600a6001018054620003649062000c7f565b80601f0160208091040260200160405190810160405280929190818152602001828054620003929062000c7f565b8015620003e35780601f10620003b757610100808354040283529160200191620003e3565b820191906000526020600020905b815481529060010190602001808311620003c557829003601f168201915b5050505050620005f660201b60201c565b6000600782815481106200040d576200040c62000f6d565b5b90600052602060002090600602016040518060c001604052908160008201548152602001600182018054620004429062000c7f565b80601f0160208091040260200160405190810160405280929190818152602001828054620004709062000c7f565b8015620004c15780601f106200049557610100808354040283529160200191620004c1565b820191906000526020600020905b815481529060010190602001808311620004a357829003601f168201915b50505050508152602001600282018054620004dc9062000c7f565b80601f01602080910402602001604051908101604052809291908181526020018280546200050a9062000c7f565b80156200055b5780601f106200052f576101008083540402835291602001916200055b565b820191906000526020600020905b8154815290600101906020018083116200053d57829003601f168201915b5050505050815260200160038201548152602001600482015481526020016005820154815250509050620005bd60405180606001604052806025815260200162005b5c60259139826020015183606001518460400151620005f660201b60201c565b50600181620005cd919062000fcb565b9050620000d1565b50620005e86006620006a260201b60201c565b5050505050505050620010fa565b6200069c8484848460405160240162000613949392919062001069565b6040516020818303038152906040527f5d1a971a000000000000000000000000000000000000000000000000000000007bffffffffffffffffffffffffffffffffffffffffffffffffffffffff19166020820180517bffffffffffffffffffffffffffffffffffffffffffffffffffffffff8381831617835250505050620006b860201b60201c565b50505050565b6001816000016000828254019250508190555050565b620006de81620006d9620006e160201b62001f25176200070260201b60201c565b60201c565b50565b60006a636f6e736f6c652e6c6f679050600080835160208501845afa505050565b6200071660201b620031f817819050919050565b62000720620010cb565b565b6000604051905090565b600080fd5b600080fd5b600080fd5b6000601f19601f8301169050919050565b7f4e487b7100000000000000000000000000000000000000000000000000000000600052604160045260246000fd5b62000786826200073b565b810181811067ffffffffffffffff82111715620007a857620007a76200074c565b5b80604052505050565b6000620007bd62000722565b9050620007cb82826200077b565b919050565b600067ffffffffffffffff821115620007ee57620007ed6200074c565b5b602082029050602081019050919050565b600080fd5b600080fd5b600067ffffffffffffffff8211156200082757620008266200074c565b5b62000832826200073b565b9050602081019050919050565b60005b838110156200085f57808201518184015260208101905062000842565b60008484015250505050565b6000620008826200087c8462000809565b620007b1565b905082815260208101848484011115620008a157620008a062000804565b5b620008ae8482856200083f565b509392505050565b600082601f830112620008ce57620008cd62000736565b5b8151620008e08482602086016200086b565b91505092915050565b600062000900620008fa84620007d0565b620007b1565b90508083825260208201905060208402830185811115620009265762000925620007ff565b5b835b818110156200097457805167ffffffffffffffff8111156200094f576200094e62000736565b5b8086016200095e8982620008b6565b8552602085019450505060208101905062000928565b5050509392505050565b600082601f83011262000996576200099562000736565b5b8151620009a8848260208601620008e9565b91505092915050565b600067ffffffffffffffff821115620009cf57620009ce6200074c565b5b602082029050602081019050919050565b6000819050919050565b620009f581620009e0565b811462000a0157600080fd5b50565b60008151905062000a1581620009ea565b92915050565b600062000a3262000a2c84620009b1565b620007b1565b9050808382526020820190506020840283018581111562000a585762000a57620007ff565b5b835b8181101562000a85578062000a70888262000a04565b84526020840193505060208101905062000a5a565b5050509392505050565b600082601f83011262000aa75762000aa662000736565b5b815162000ab984826020860162000a1b565b91505092915050565b600080600080600080600080610100898b03121562000ae65762000ae56200072c565b5b600089015167ffffffffffffffff81111562000b075762000b0662000731565b5b62000b158b828c016200097e565b985050602089015167ffffffffffffffff81111562000b395762000b3862000731565b5b62000b478b828c016200097e565b975050604089015167ffffffffffffffff81111562000b6b5762000b6a62000731565b5b62000b798b828c0162000a8f565b965050606089015167ffffffffffffffff81111562000b9d5762000b9c62000731565b5b62000bab8b828c0162000a8f565b955050608089015167ffffffffffffffff81111562000bcf5762000bce62000731565b5b62000bdd8b828c01620008b6565b94505060a089015167ffffffffffffffff81111562000c015762000c0062000731565b5b62000c0f8b828c01620008b6565b93505060c062000c228b828c0162000a04565b92505060e062000c358b828c0162000a04565b9150509295985092959890939650565b600081519050919050565b7f4e487b7100000000000000000000000000000000000000000000000000000000600052602260045260246000fd5b6000600282049050600182168062000c9857607f821691505b60208210810362000cae5762000cad62000c50565b5b50919050565b60008190508160005260206000209050919050565b60006020601f8301049050919050565b600082821b905092915050565b60006008830262000d187fffffffffffffffffffffffffffffffffffffffffffffffffffffffffffffffff8262000cd9565b62000d24868362000cd9565b95508019841693508086168417925050509392505050565b6000819050919050565b600062000d6762000d6162000d5b84620009e0565b62000d3c565b620009e0565b9050919050565b6000819050919050565b62000d838362000d46565b62000d9b62000d928262000d6e565b84845462000ce6565b825550505050565b600090565b62000db262000da3565b62000dbf81848462000d78565b505050565b5b8181101562000de75762000ddb60008262000da8565b60018101905062000dc5565b5050565b601f82111562000e365762000e008162000cb4565b62000e0b8462000cc9565b8101602085101562000e1b578190505b62000e3362000e2a8562000cc9565b83018262000dc4565b50505b505050565b600082821c905092915050565b600062000e5b6000198460080262000e3b565b1980831691505092915050565b600062000e76838362000e48565b9150826002028217905092915050565b62000e918262000c45565b67ffffffffffffffff81111562000ead5762000eac6200074c565b5b62000eb9825462000c7f565b62000ec682828562000deb565b600060209050601f83116001811462000efe576000841562000ee9578287015190505b62000ef5858262000e68565b86555062000f65565b601f19841662000f0e8662000cb4565b60005b8281101562000f385784890151825560018201915060208501945060208101905062000f11565b8683101562000f58578489015162000f54601f89168262000e48565b8355505b6001600288020188555050505b505050505050565b7f4e487b7100000000000000000000000000000000000000000000000000000000600052603260045260246000fd5b7f4e487b7100000000000000000000000000000000000000000000000000000000600052601160045260246000fd5b600062000fd882620009e0565b915062000fe583620009e0565b9250828201905080821115620010005762000fff62000f9c565b5b92915050565b600082825260208201905092915050565b6000620010248262000c45565b62001030818562001006565b9350620010428185602086016200083f565b6200104d816200073b565b840191505092915050565b6200106381620009e0565b82525050565b6000608082019050818103600083015262001085818762001017565b905081810360208301526200109b818662001017565b9050620010ac604083018562001058565b8181036060830152620010c0818462001017565b905095945050505050565b7f4e487b7100000000000000000000000000000000000000000000000000000000600052605160045260246000fd5b614a52806200110a6000396000f3fe608060405234801561001057600080fd5b50600436106101425760003560e01c806398da4c95116100b8578063b953084e1161007c578063b953084e1461037e578063c87b56dd1461039c578063c8cf27f4146103cc578063d4f24c5b146103ea578063e985e9c5146103f4578063f8b81ef71461042457610142565b806398da4c95146102e5578063a22cb4651461031a578063a9c3267914610336578063b45adac114610358578063b88d4fde1461036257610142565b806323b872dd1161010a57806323b872dd146101ff57806342842e0e1461021b5780636352211e1461023757806370a08231146102675780637df124a11461029757806395d89b41146102c757610142565b806301ffc9a7146101475780630665f9611461017757806306fdde0314610195578063081812fc146101b3578063095ea7b3146101e3575b600080fd5b610161600480360381019061015c91906132d3565b610440565b60405161016e919061331b565b60405180910390f35b61017f610522565b60405161018c919061345c565b60405180910390f35b61019d61067e565b6040516101aa91906134c8565b60405180910390f35b6101cd60048036038101906101c89190613516565b610710565b6040516101da9190613584565b60405180910390f35b6101fd60048036038101906101f891906135cb565b61072c565b005b6102196004803603810190610214919061360b565b610742565b005b6102356004803603810190610230919061360b565b610844565b005b610251600480360381019061024c9190613516565b610864565b60405161025e9190613584565b60405180910390f35b610281600480360381019061027c919061365e565b610876565b60405161028e919061369a565b60405180910390f35b6102b160048036038101906102ac919061365e565b610930565b6040516102be919061369a565b60405180910390f35b6102cf610948565b6040516102dc91906134c8565b60405180910390f35b6102ff60048036038101906102fa9190613516565b6109da565b604051610311969594939291906136b5565b60405180910390f35b610334600480360381019061032f9190613750565b610b26565b005b61033e610b3c565b60405161034f959493929190613790565b60405180910390f35b610360610c70565b005b61037c60048036038101906103779190613926565b610d67565b005b610386610d84565b6040516103939190613afb565b60405180910390f35b6103b660048036038101906103b19190613516565b610f2f565b6040516103c391906134c8565b60405180910390f35b6103d461114a565b6040516103e19190613bad565b60405180910390f35b6103f2611322565b005b61040e60048036038101906104099190613bcf565b611b69565b60405161041b919061331b565b60405180910390f35b61043e60048036038101906104399190613516565b611bfd565b005b60007f80ac58cd000000000000000000000000000000000000000000000000000000007bffffffffffffffffffffffffffffffffffffffffffffffffffffffff1916827bffffffffffffffffffffffffffffffffffffffffffffffffffffffff1916148061050b57507f5b5e139f000000000000000000000000000000000000000000000000000000007bffffffffffffffffffffffffffffffffffffffffffffffffffffffff1916827bffffffffffffffffffffffffffffffffffffffffffffffffffffffff1916145b8061051b575061051a82611f46565b5b9050919050565b61052a613202565b600a6040518060a001604052908160008201805461054790613c3e565b80601f016020809104026020016040519081016040528092919081815260200182805461057390613c3e565b80156105c05780601f10610595576101008083540402835291602001916105c0565b820191906000526020600020905b8154815290600101906020018083116105a357829003601f168201915b505050505081526020016001820180546105d990613c3e565b80601f016020809104026020016040519081016040528092919081815260200182805461060590613c3e565b80156106525780601f1061062757610100808354040283529160200191610652565b820191906000526020600020905b81548152906001019060200180831161063557829003601f168201915b505050505081526020016002820154815260200160038201548152602001600482015481525050905090565b60606000805461068d90613c3e565b80601f01602080910402602001604051908101604052809291908181526020018280546106b990613c3e565b80156107065780601f106106db57610100808354040283529160200191610706565b820191906000526020600020905b8154815290600101906020018083116106e957829003601f168201915b5050505050905090565b600061071b82611fb0565b5061072582612038565b9050919050565b61073e8282610739612075565b61207d565b5050565b600073ffffffffffffffffffffffffffffffffffffffff168273ffffffffffffffffffffffffffffffffffffffff16036107b45760006040517f64a0ae920000000000000000000000000000000000000000000000000000000081526004016107ab9190613584565b60405180910390fd5b60006107c883836107c3612075565b61208f565b90508373ffffffffffffffffffffffffffffffffffffffff168173ffffffffffffffffffffffffffffffffffffffff161461083e578382826040517f64283d7b00000000000000000000000000000000000000000000000000000000815260040161083593929190613c6f565b60405180910390fd5b50505050565b61085f83838360405180602001604052806000815250610d67565b505050565b600061086f82611fb0565b9050919050565b60008073ffffffffffffffffffffffffffffffffffffffff168273ffffffffffffffffffffffffffffffffffffffff16036108e95760006040517f89c62b640000000000000000000000000000000000000000000000000000000081526004016108e09190613584565b60405180910390fd5b600360008373ffffffffffffffffffffffffffffffffffffffff1673ffffffffffffffffffffffffffffffffffffffff168152602001908152602001600020549050919050565b60096020528060005260406000206000915090505481565b60606001805461095790613c3e565b80601f016020809104026020016040519081016040528092919081815260200182805461098390613c3e565b80156109d05780601f106109a5576101008083540402835291602001916109d0565b820191906000526020600020905b8154815290600101906020018083116109b357829003601f168201915b5050505050905090565b6008602052806000526040600020600091509050806000015490806001018054610a0390613c3e565b80601f0160208091040260200160405190810160405280929190818152602001828054610a2f90613c3e565b8015610a7c5780601f10610a5157610100808354040283529160200191610a7c565b820191906000526020600020905b815481529060010190602001808311610a5f57829003601f168201915b505050505090806002018054610a9190613c3e565b80601f0160208091040260200160405190810160405280929190818152602001828054610abd90613c3e565b8015610b0a5780601f10610adf57610100808354040283529160200191610b0a565b820191906000526020600020905b815481529060010190602001808311610aed57829003601f168201915b5050505050908060030154908060040154908060050154905086565b610b38610b31612075565b83836122a9565b5050565b600a806000018054610b4d90613c3e565b80601f0160208091040260200160405190810160405280929190818152602001828054610b7990613c3e565b8015610bc65780601f10610b9b57610100808354040283529160200191610bc6565b820191906000526020600020905b815481529060010190602001808311610ba957829003601f168201915b505050505090806001018054610bdb90613c3e565b80601f0160208091040260200160405190810160405280929190818152602001828054610c0790613c3e565b8015610c545780601f10610c2957610100808354040283529160200191610c54565b820191906000526020600020905b815481529060010190602001808311610c3757829003601f168201915b5050505050908060020154908060030154908060040154905085565b6000600960003373ffffffffffffffffffffffffffffffffffffffff1673ffffffffffffffffffffffffffffffffffffffff16815260200190815260200160002054905060006008600083815260200190815260200160002090506000816003015414610d12576040517f08c379a0000000000000000000000000000000000000000000000000000000008152600401610d0990613d18565b60405180910390fd5b806004015481600301819055507f32bd565ee3f2cb5ddd742bbecd6048d3e9abe90b3827a40c2b72d232e71e3c9d33600a600201548360030154604051610d5b93929190613d38565b60405180910390a15050565b610d72848484610742565b610d7e84848484612418565b50505050565b60606007805480602002602001604051908101604052809291908181526020016000905b82821015610f2657838290600052602060002090600602016040518060c001604052908160008201548152602001600182018054610de590613c3e565b80601f0160208091040260200160405190810160405280929190818152602001828054610e1190613c3e565b8015610e5e5780601f10610e3357610100808354040283529160200191610e5e565b820191906000526020600020905b815481529060010190602001808311610e4157829003601f168201915b50505050508152602001600282018054610e7790613c3e565b80601f0160208091040260200160405190810160405280929190818152602001828054610ea390613c3e565b8015610ef05780601f10610ec557610100808354040283529160200191610ef0565b820191906000526020600020905b815481529060010190602001808311610ed357829003601f168201915b50505050508152602001600382015481526020016004820154815260200160058201548152505081526020019060010190610da8565b50505050905090565b60606000600860008481526020019081526020016000206040518060c001604052908160008201548152602001600182018054610f6b90613c3e565b80601f0160208091040260200160405190810160405280929190818152602001828054610f9790613c3e565b8015610fe45780601f10610fb957610100808354040283529160200191610fe4565b820191906000526020600020905b815481529060010190602001808311610fc757829003601f168201915b50505050508152602001600282018054610ffd90613c3e565b80601f016020809104026020016040519081016040528092919081815260200182805461102990613c3e565b80156110765780601f1061104b57610100808354040283529160200191611076565b820191906000526020600020905b81548152906001019060200180831161105957829003601f168201915b505050505081526020016003820154815260200160048201548152602001600582015481525050905060006110ae82606001516125cf565b905060006110bf83608001516125cf565b905060006110d08460a001516125cf565b9050600061111685602001516110e5896125cf565b876040015187878760405160200161110296959493929190614057565b60405160208183030381529060405261269d565b905060008160405160200161112b9190614148565b6040516020818303038152906040529050809650505050505050919050565b611152613231565b6000600960003373ffffffffffffffffffffffffffffffffffffffff1673ffffffffffffffffffffffffffffffffffffffff168152602001908152602001600020549050600081111561131157600860008281526020019081526020016000206040518060c0016040529081600082015481526020016001820180546111d790613c3e565b80601f016020809104026020016040519081016040528092919081815260200182805461120390613c3e565b80156112505780601f1061122557610100808354040283529160200191611250565b820191906000526020600020905b81548152906001019060200180831161123357829003601f168201915b5050505050815260200160028201805461126990613c3e565b80601f016020809104026020016040519081016040528092919081815260200182805461129590613c3e565b80156112e25780601f106112b7576101008083540402835291602001916112e2565b820191906000526020600020905b8154815290600101906020018083116112c557829003601f168201915b50505050508152602001600382015481526020016004820154815260200160058201548152505091505061131f565b611319613231565b80925050505b90565b6000600960003373ffffffffffffffffffffffffffffffffffffffff1673ffffffffffffffffffffffffffffffffffffffff168152602001908152602001600020549050600060086000838152602001908152602001600020905060008160030154116113c4576040517f08c379a00000000000000000000000000000000000000000000000000000000081526004016113bb906141b6565b60405180910390fd5b6000600a600201541161140c576040517f08c379a000000000000000000000000000000000000000000000000000000000815260040161140390614248565b60405180910390fd5b6115656040518060400160405280601481526020017f25732061747461636b73207468652025732e2e2e00000000000000000000000081525082600101805461145490613c3e565b80601f016020809104026020016040519081016040528092919081815260200182805461148090613c3e565b80156114cd5780601f106114a2576101008083540402835291602001916114cd565b820191906000526020600020905b8154815290600101906020018083116114b057829003601f168201915b5050505050600a60000180546114e290613c3e565b80601f016020809104026020016040519081016040528092919081815260200182805461150e90613c3e565b801561155b5780601f106115305761010080835404028352916020019161155b565b820191906000526020600020905b81548152906001019060200180831161153e57829003601f168201915b5050505050612834565b8060050154600a6002015410156115c4576000600a600201819055506115bf6040518060400160405280601181526020017f54686520626f73732069732064656164210000000000000000000000000000008152506128d3565b6117db565b60056115d0600a61296c565b11156116ca578060050154600a600201546115eb9190614297565b600a600201819055506116c56040518060400160405280600c81526020017f426f7373204850203d202573000000000000000000000000000000000000000081525082600101805461163c90613c3e565b80601f016020809104026020016040519081016040528092919081815260200182805461166890613c3e565b80156116b55780601f1061168a576101008083540402835291602001916116b5565b820191906000526020600020905b81548152906001019060200180831161169857829003601f168201915b5050505050600a600201546129c8565b611796565b6117956040518060400160405280600b81526020017f2573206d6973736564210a00000000000000000000000000000000000000000081525082600101805461171290613c3e565b80601f016020809104026020016040519081016040528092919081815260200182805461173e90613c3e565b801561178b5780601f106117605761010080835404028352916020019161178b565b820191906000526020600020905b81548152906001019060200180831161176e57829003601f168201915b5050505050612a67565b5b7f32bd565ee3f2cb5ddd742bbecd6048d3e9abe90b3827a40c2b72d232e71e3c9d33600a6002015483600301546040516117d293929190613d38565b60405180910390a15b6119346040518060400160405280601081526020017f25732061747461636b732025732e2e2e00000000000000000000000000000000815250600a600001805461182490613c3e565b80601f016020809104026020016040519081016040528092919081815260200182805461185090613c3e565b801561189d5780601f106118725761010080835404028352916020019161189d565b820191906000526020600020905b81548152906001019060200180831161188057829003601f168201915b50505050508360010180546118b190613c3e565b80601f01602080910402602001604051908101604052809291908181526020018280546118dd90613c3e565b801561192a5780601f106118ff5761010080835404028352916020019161192a565b820191906000526020600020905b81548152906001019060200180831161190d57829003601f168201915b5050505050612834565b600a6004015481600301541015611992576000816003018190555061198d6040518060400160405280601381526020017f54686520706c61796572206973206465616421000000000000000000000000008152506128d3565b611b65565b600461199e600a61296c565b1115611a9757600a6004015481600301546119b99190614297565b8160030181905550611a926040518060400160405280600e81526020017f506c61796572204850203d202573000000000000000000000000000000000000815250600a6000018054611a0a90613c3e565b80601f0160208091040260200160405190810160405280929190818152602001828054611a3690613c3e565b8015611a835780601f10611a5857610100808354040283529160200191611a83565b820191906000526020600020905b815481529060010190602001808311611a6657829003601f168201915b505050505083600301546129c8565b611b64565b611b636040518060400160405280600b81526020017f2573206d6973736564210a000000000000000000000000000000000000000000815250600a6000018054611ae090613c3e565b80601f0160208091040260200160405190810160405280929190818152602001828054611b0c90613c3e565b8015611b595780601f10611b2e57610100808354040283529160200191611b59565b820191906000526020600020905b815481529060010190602001808311611b3c57829003601f168201915b5050505050612a67565b5b5b5050565b6000600560008473ffffffffffffffffffffffffffffffffffffffff1673ffffffffffffffffffffffffffffffffffffffff16815260200190815260200160002060008373ffffffffffffffffffffffffffffffffffffffff1673ffffffffffffffffffffffffffffffffffffffff16815260200190815260200160002060009054906101000a900460ff16905092915050565b6000611c096006612b03565b9050611c153382612b11565b6040518060c0016040528083815260200160078481548110611c3a57611c396142cb565b5b90600052602060002090600602016001018054611c5690613c3e565b80601f0160208091040260200160405190810160405280929190818152602001828054611c8290613c3e565b8015611ccf5780601f10611ca457610100808354040283529160200191611ccf565b820191906000526020600020905b815481529060010190602001808311611cb257829003601f168201915b5050505050815260200160078481548110611ced57611cec6142cb565b5b90600052602060002090600602016002018054611d0990613c3e565b80601f0160208091040260200160405190810160405280929190818152602001828054611d3590613c3e565b8015611d825780601f10611d5757610100808354040283529160200191611d82565b820191906000526020600020905b815481529060010190602001808311611d6557829003601f168201915b5050505050815260200160078481548110611da057611d9f6142cb565b5b906000526020600020906006020160030154815260200160078481548110611dcb57611dca6142cb565b5b906000526020600020906006020160040154815260200160078481548110611df657611df56142cb565b5b90600052602060002090600602016005015481525060086000838152602001908152602001600020600082015181600001556020820151816001019081611e3d91906144a6565b506040820151816002019081611e5391906144a6565b50606082015181600301556080820151816004015560a08201518160050155905050611e986040518060600160405280602e81526020016149ef602e91398284612b2f565b80600960003373ffffffffffffffffffffffffffffffffffffffff1673ffffffffffffffffffffffffffffffffffffffff16815260200190815260200160002081905550611ee66006612bce565b7f4bc303fd457a97b4691b9af582ce71868a3d258638c8d4f8c60988a0f0bfb8cd338284604051611f1993929190613d38565b60405180910390a15050565b60006a636f6e736f6c652e6c6f679050600080835160208501845afa505050565b60007f01ffc9a7000000000000000000000000000000000000000000000000000000007bffffffffffffffffffffffffffffffffffffffffffffffffffffffff1916827bffffffffffffffffffffffffffffffffffffffffffffffffffffffff1916149050919050565b600080611fbc83612be4565b9050600073ffffffffffffffffffffffffffffffffffffffff168173ffffffffffffffffffffffffffffffffffffffff160361202f57826040517f7e273289000000000000000000000000000000000000000000000000000000008152600401612026919061369a565b60405180910390fd5b80915050919050565b60006004600083815260200190815260200160002060009054906101000a900473ffffffffffffffffffffffffffffffffffffffff169050919050565b600033905090565b61208a8383836001612c21565b505050565b60008061209b84612be4565b9050600073ffffffffffffffffffffffffffffffffffffffff168373ffffffffffffffffffffffffffffffffffffffff16146120dd576120dc818486612de6565b5b600073ffffffffffffffffffffffffffffffffffffffff168173ffffffffffffffffffffffffffffffffffffffff161461216e5761211f600085600080612c21565b6001600360008373ffffffffffffffffffffffffffffffffffffffff1673ffffffffffffffffffffffffffffffffffffffff168152602001908152602001600020600082825403925050819055505b600073ffffffffffffffffffffffffffffffffffffffff168573ffffffffffffffffffffffffffffffffffffffff16146121f1576001600360008773ffffffffffffffffffffffffffffffffffffffff1673ffffffffffffffffffffffffffffffffffffffff168152602001908152602001600020600082825401925050819055505b846002600086815260200190815260200160002060006101000a81548173ffffffffffffffffffffffffffffffffffffffff021916908373ffffffffffffffffffffffffffffffffffffffff160217905550838573ffffffffffffffffffffffffffffffffffffffff168273ffffffffffffffffffffffffffffffffffffffff167fddf252ad1be2c89b69c2b068fc378daa952ba7f163c4a11628f55a4df523b3ef60405160405180910390a4809150509392505050565b600073ffffffffffffffffffffffffffffffffffffffff168273ffffffffffffffffffffffffffffffffffffffff160361231a57816040517f5b08ba180000000000000000000000000000000000000000000000000000000081526004016123119190613584565b60405180910390fd5b80600560008573ffffffffffffffffffffffffffffffffffffffff1673ffffffffffffffffffffffffffffffffffffffff16815260200190815260200160002060008473ffffffffffffffffffffffffffffffffffffffff1673ffffffffffffffffffffffffffffffffffffffff16815260200190815260200160002060006101000a81548160ff0219169083151502179055508173ffffffffffffffffffffffffffffffffffffffff168373ffffffffffffffffffffffffffffffffffffffff167f17307eab39ab6107e8899845ad3d59bd9653f200f220920489ca2b5937696c318360405161240b919061331b565b60405180910390a3505050565b60008373ffffffffffffffffffffffffffffffffffffffff163b11156125c9578273ffffffffffffffffffffffffffffffffffffffff1663150b7a0261245c612075565b8685856040518563ffffffff1660e01b815260040161247e94939291906145cd565b6020604051808303816000875af19250505080156124ba57506040513d601f19601f820116820180604052508101906124b7919061462e565b60015b61253e573d80600081146124ea576040519150601f19603f3d011682016040523d82523d6000602084013e6124ef565b606091505b50600081510361253657836040517f64a0ae9200000000000000000000000000000000000000000000000000000000815260040161252d9190613584565b60405180910390fd5b805181602001fd5b63150b7a0260e01b7bffffffffffffffffffffffffffffffffffffffffffffffffffffffff1916817bffffffffffffffffffffffffffffffffffffffffffffffffffffffff1916146125c757836040517f64a0ae920000000000000000000000000000000000000000000000000000000081526004016125be9190613584565b60405180910390fd5b505b50505050565b6060600060016125de84612eaa565b01905060008167ffffffffffffffff8111156125fd576125fc6137fb565b5b6040519080825280601f01601f19166020018201604052801561262f5781602001600182028036833780820191505090505b509050600082602001820190505b600115612692578080600190039150507f3031323334353637383961626364656600000000000000000000000000000000600a86061a8153600a85816126865761268561465b565b5b0494506000850361263d575b819350505050919050565b6060600082519050600081036126c5576040518060200160405280600081525091505061282f565b600060036002836126d6919061468a565b6126e091906146be565b60046126ec91906146ef565b905060006020826126fd919061468a565b67ffffffffffffffff811115612716576127156137fb565b5b6040519080825280601f01601f1916602001820160405280156127485781602001600182028036833780820191505090505b50905060006040518060600160405280604081526020016149af604091399050600181016020830160005b868110156127ec5760038101905062ffffff818a015116603f8160121c168401518060081b905060ff603f83600c1c1686015116810190508060081b905060ff603f8360061c1686015116810190508060081b905060ff603f831686015116810190508060e01b90508084526004840193505050612773565b506003860660018114612806576002811461281657612821565b613d3d60f01b6002830352612821565b603d60f81b60018303525b508484525050819450505050505b919050565b6128ce83838360405160240161284c93929190614731565b6040516020818303038152906040527f2ced7cef000000000000000000000000000000000000000000000000000000007bffffffffffffffffffffffffffffffffffffffffffffffffffffffff19166020820180517bffffffffffffffffffffffffffffffffffffffffffffffffffffffff8381831617835250505050612ffd565b505050565b612969816040516024016128e791906134c8565b6040516020818303038152906040527f41304fac000000000000000000000000000000000000000000000000000000007bffffffffffffffffffffffffffffffffffffffffffffffffffffffff19166020820180517bffffffffffffffffffffffffffffffffffffffffffffffffffffffff8381831617835250505050612ffd565b50565b6000600f60008154809291906129819061477d565b9190505550814233600f5460405160200161299e9392919061482e565b6040516020818303038152906040528051906020012060001c6129c1919061486b565b9050919050565b612a628383836040516024016129e09392919061489c565b6040516020818303038152906040527f5821efa1000000000000000000000000000000000000000000000000000000007bffffffffffffffffffffffffffffffffffffffffffffffffffffffff19166020820180517bffffffffffffffffffffffffffffffffffffffffffffffffffffffff8381831617835250505050612ffd565b505050565b612aff8282604051602401612a7d9291906148e1565b6040516020818303038152906040527f4b5c4277000000000000000000000000000000000000000000000000000000007bffffffffffffffffffffffffffffffffffffffffffffffffffffffff19166020820180517bffffffffffffffffffffffffffffffffffffffffffffffffffffffff8381831617835250505050612ffd565b5050565b600081600001549050919050565b612b2b828260405180602001604052806000815250613017565b5050565b612bc9838383604051602401612b4793929190614918565b6040516020818303038152906040527fca47c4eb000000000000000000000000000000000000000000000000000000007bffffffffffffffffffffffffffffffffffffffffffffffffffffffff19166020820180517bffffffffffffffffffffffffffffffffffffffffffffffffffffffff8381831617835250505050612ffd565b505050565b6001816000016000828254019250508190555050565b60006002600083815260200190815260200160002060009054906101000a900473ffffffffffffffffffffffffffffffffffffffff169050919050565b8080612c5a5750600073ffffffffffffffffffffffffffffffffffffffff168273ffffffffffffffffffffffffffffffffffffffff1614155b15612d8e576000612c6a84611fb0565b9050600073ffffffffffffffffffffffffffffffffffffffff168373ffffffffffffffffffffffffffffffffffffffff1614158015612cd557508273ffffffffffffffffffffffffffffffffffffffff168173ffffffffffffffffffffffffffffffffffffffff1614155b8015612ce85750612ce68184611b69565b155b15612d2a57826040517fa9fbf51f000000000000000000000000000000000000000000000000000000008152600401612d219190613584565b60405180910390fd5b8115612d8c57838573ffffffffffffffffffffffffffffffffffffffff168273ffffffffffffffffffffffffffffffffffffffff167f8c5be1e5ebec7d5bd14f71427d1e84f3dd0314c0f7b2291e5b200ac8c7c3b92560405160405180910390a45b505b836004600085815260200190815260200160002060006101000a81548173ffffffffffffffffffffffffffffffffffffffff021916908373ffffffffffffffffffffffffffffffffffffffff16021790555050505050565b612df1838383613033565b612ea557600073ffffffffffffffffffffffffffffffffffffffff168373ffffffffffffffffffffffffffffffffffffffff1603612e6657806040517f7e273289000000000000000000000000000000000000000000000000000000008152600401612e5d919061369a565b60405180910390fd5b81816040517f177e802f000000000000000000000000000000000000000000000000000000008152600401612e9c929190614956565b60405180910390fd5b505050565b600080600090507a184f03e93ff9f4daa797ed6e38ed64bf6a1f0100000000000000008310612f08577a184f03e93ff9f4daa797ed6e38ed64bf6a1f0100000000000000008381612efe57612efd61465b565b5b0492506040810190505b6d04ee2d6d415b85acef81000000008310612f45576d04ee2d6d415b85acef81000000008381612f3b57612f3a61465b565b5b0492506020810190505b662386f26fc100008310612f7457662386f26fc100008381612f6a57612f6961465b565b5b0492506010810190505b6305f5e1008310612f9d576305f5e1008381612f9357612f9261465b565b5b0492506008810190505b6127108310612fc2576127108381612fb857612fb761465b565b5b0492506004810190505b60648310612fe55760648381612fdb57612fda61465b565b5b0492506002810190505b600a8310612ff4576001810190505b80915050919050565b6130148161300c611f256130f4565b63ffffffff16565b50565b61302183836130ff565b61302e6000848484612418565b505050565b60008073ffffffffffffffffffffffffffffffffffffffff168373ffffffffffffffffffffffffffffffffffffffff16141580156130eb57508273ffffffffffffffffffffffffffffffffffffffff168473ffffffffffffffffffffffffffffffffffffffff1614806130ac57506130ab8484611b69565b5b806130ea57508273ffffffffffffffffffffffffffffffffffffffff166130d283612038565b73ffffffffffffffffffffffffffffffffffffffff16145b5b90509392505050565b6131f8819050919050565b600073ffffffffffffffffffffffffffffffffffffffff168273ffffffffffffffffffffffffffffffffffffffff16036131715760006040517f64a0ae920000000000000000000000000000000000000000000000000000000081526004016131689190613584565b60405180910390fd5b600061317f8383600061208f565b9050600073ffffffffffffffffffffffffffffffffffffffff168173ffffffffffffffffffffffffffffffffffffffff16146131f35760006040517f73c6ac6e0000000000000000000000000000000000000000000000000000000081526004016131ea9190613584565b60405180910390fd5b505050565b61320061497f565b565b6040518060a0016040528060608152602001606081526020016000815260200160008152602001600081525090565b6040518060c001604052806000815260200160608152602001606081526020016000815260200160008152602001600081525090565b6000604051905090565b600080fd5b600080fd5b60007fffffffff0000000000000000000000000000000000000000000000000000000082169050919050565b6132b08161327b565b81146132bb57600080fd5b50565b6000813590506132cd816132a7565b92915050565b6000602082840312156132e9576132e8613271565b5b60006132f7848285016132be565b91505092915050565b60008115159050919050565b61331581613300565b82525050565b6000602082019050613330600083018461330c565b92915050565b600081519050919050565b600082825260208201905092915050565b60005b83811015613370578082015181840152602081019050613355565b60008484015250505050565b6000601f19601f8301169050919050565b600061339882613336565b6133a28185613341565b93506133b2818560208601613352565b6133bb8161337c565b840191505092915050565b6000819050919050565b6133d9816133c6565b82525050565b600060a08301600083015184820360008601526133fc828261338d565b91505060208301518482036020860152613416828261338d565b915050604083015161342b60408601826133d0565b50606083015161343e60608601826133d0565b50608083015161345160808601826133d0565b508091505092915050565b6000602082019050818103600083015261347681846133df565b905092915050565b600082825260208201905092915050565b600061349a82613336565b6134a4818561347e565b93506134b4818560208601613352565b6134bd8161337c565b840191505092915050565b600060208201905081810360008301526134e2818461348f565b905092915050565b6134f3816133c6565b81146134fe57600080fd5b50565b600081359050613510816134ea565b92915050565b60006020828403121561352c5761352b613271565b5b600061353a84828501613501565b91505092915050565b600073ffffffffffffffffffffffffffffffffffffffff82169050919050565b600061356e82613543565b9050919050565b61357e81613563565b82525050565b60006020820190506135996000830184613575565b92915050565b6135a881613563565b81146135b357600080fd5b50565b6000813590506135c58161359f565b92915050565b600080604083850312156135e2576135e1613271565b5b60006135f0858286016135b6565b925050602061360185828601613501565b9150509250929050565b60008060006060848603121561362457613623613271565b5b6000613632868287016135b6565b9350506020613643868287016135b6565b925050604061365486828701613501565b9150509250925092565b60006020828403121561367457613673613271565b5b6000613682848285016135b6565b91505092915050565b613694816133c6565b82525050565b60006020820190506136af600083018461368b565b92915050565b600060c0820190506136ca600083018961368b565b81810360208301526136dc818861348f565b905081810360408301526136f0818761348f565b90506136ff606083018661368b565b61370c608083018561368b565b61371960a083018461368b565b979650505050505050565b61372d81613300565b811461373857600080fd5b50565b60008135905061374a81613724565b92915050565b6000806040838503121561376757613766613271565b5b6000613775858286016135b6565b92505060206137868582860161373b565b9150509250929050565b600060a08201905081810360008301526137aa818861348f565b905081810360208301526137be818761348f565b90506137cd604083018661368b565b6137da606083018561368b565b6137e7608083018461368b565b9695505050505050565b600080fd5b600080fd5b7f4e487b7100000000000000000000000000000000000000000000000000000000600052604160045260246000fd5b6138338261337c565b810181811067ffffffffffffffff82111715613852576138516137fb565b5b80604052505050565b6000613865613267565b9050613871828261382a565b919050565b600067ffffffffffffffff821115613891576138906137fb565b5b61389a8261337c565b9050602081019050919050565b82818337600083830152505050565b60006138c96138c484613876565b61385b565b9050828152602081018484840111156138e5576138e46137f6565b5b6138f08482856138a7565b509392505050565b600082601f83011261390d5761390c6137f1565b5b813561391d8482602086016138b6565b91505092915050565b600080600080608085870312156139405761393f613271565b5b600061394e878288016135b6565b945050602061395f878288016135b6565b935050604061397087828801613501565b925050606085013567ffffffffffffffff81111561399157613990613276565b5b61399d878288016138f8565b91505092959194509250565b600081519050919050565b600082825260208201905092915050565b6000819050602082019050919050565b600060c0830160008301516139ed60008601826133d0565b5060208301518482036020860152613a05828261338d565b91505060408301518482036040860152613a1f828261338d565b9150506060830151613a3460608601826133d0565b506080830151613a4760808601826133d0565b5060a0830151613a5a60a08601826133d0565b508091505092915050565b6000613a7183836139d5565b905092915050565b6000602082019050919050565b6000613a91826139a9565b613a9b81856139b4565b935083602082028501613aad856139c5565b8060005b85811015613ae95784840389528151613aca8582613a65565b9450613ad583613a79565b925060208a01995050600181019050613ab1565b50829750879550505050505092915050565b60006020820190508181036000830152613b158184613a86565b905092915050565b600060c083016000830151613b3560008601826133d0565b5060208301518482036020860152613b4d828261338d565b91505060408301518482036040860152613b67828261338d565b9150506060830151613b7c60608601826133d0565b506080830151613b8f60808601826133d0565b5060a0830151613ba260a08601826133d0565b508091505092915050565b60006020820190508181036000830152613bc78184613b1d565b905092915050565b60008060408385031215613be657613be5613271565b5b6000613bf4858286016135b6565b9250506020613c05858286016135b6565b9150509250929050565b7f4e487b7100000000000000000000000000000000000000000000000000000000600052602260045260246000fd5b60006002820490506001821680613c5657607f821691505b602082108103613c6957613c68613c0f565b5b50919050565b6000606082019050613c846000830186613575565b613c91602083018561368b565b613c9e6040830184613575565b949350505050565b7f4572726f723a204f6e6c79206465616420636861726163746572732063616e2060008201527f6265207265766976656400000000000000000000000000000000000000000000602082015250565b6000613d02602a8361347e565b9150613d0d82613ca6565b604082019050919050565b60006020820190508181036000830152613d3181613cf5565b9050919050565b6000606082019050613d4d6000830186613575565b613d5a602083018561368b565b613d67604083018461368b565b949350505050565b600081905092915050565b7f7b226e616d65223a202200000000000000000000000000000000000000000000600082015250565b6000613db0600a83613d6f565b9150613dbb82613d7a565b600a82019050919050565b6000613dd182613336565b613ddb8185613d6f565b9350613deb818560208601613352565b80840191505092915050565b7f202d2d204e465420233a20000000000000000000000000000000000000000000600082015250565b6000613e2d600b83613d6f565b9150613e3882613df7565b600b82019050919050565b7f222c20226465736372697074696f6e223a20225468697320697320616e204e4660008201527f542074686174206c6574732070656f706c6520706c617920696e20746865206760208201527f616d65204d657461536c6179657221222c2022696d616765223a202200000000604082015250565b6000613ec5605c83613d6f565b9150613ed082613e43565b605c82019050919050565b7f222c202261747472696275746573223a205b207b202274726169745f7479706560008201527f223a20224865616c746820506f696e7473222c202276616c7565223a20000000602082015250565b6000613f37603d83613d6f565b9150613f4282613edb565b603d82019050919050565b7f2c20226d61785f76616c7565223a000000000000000000000000000000000000600082015250565b6000613f83600e83613d6f565b9150613f8e82613f4d565b600e82019050919050565b7f7d2c207b202274726169745f74797065223a202241747461636b2044616d616760008201527f65222c202276616c7565223a2000000000000000000000000000000000000000602082015250565b6000613ff5602d83613d6f565b915061400082613f99565b602d82019050919050565b7f7d205d7d00000000000000000000000000000000000000000000000000000000600082015250565b6000614041600483613d6f565b915061404c8261400b565b600482019050919050565b600061406282613da3565b915061406e8289613dc6565b915061407982613e20565b91506140858288613dc6565b915061409082613eb8565b915061409c8287613dc6565b91506140a782613f2a565b91506140b38286613dc6565b91506140be82613f76565b91506140ca8285613dc6565b91506140d582613fe8565b91506140e18284613dc6565b91506140ec82614034565b9150819050979650505050505050565b7f646174613a6170706c69636174696f6e2f6a736f6e3b6261736536342c000000600082015250565b6000614132601d83613d6f565b915061413d826140fc565b601d82019050919050565b600061415382614125565b915061415f8284613dc6565b915081905092915050565b7f536f7272792c20596f75722063686172616374657220697320446561642e2e2e600082015250565b60006141a060208361347e565b91506141ab8261416a565b602082019050919050565b600060208201905081810360008301526141cf81614193565b9050919050565b7f4572726f723a20626f7373206d757374206861766520485020746f206174746160008201527f636b206368617261637465722e00000000000000000000000000000000000000602082015250565b6000614232602d8361347e565b915061423d826141d6565b604082019050919050565b6000602082019050818103600083015261426181614225565b9050919050565b7f4e487b7100000000000000000000000000000000000000000000000000000000600052601160045260246000fd5b60006142a2826133c6565b91506142ad836133c6565b92508282039050818111156142c5576142c4614268565b5b92915050565b7f4e487b7100000000000000000000000000000000000000000000000000000000600052603260045260246000fd5b60008190508160005260206000209050919050565b60006020601f8301049050919050565b600082821b905092915050565b60006008830261435c7fffffffffffffffffffffffffffffffffffffffffffffffffffffffffffffffff8261431f565b614366868361431f565b95508019841693508086168417925050509392505050565b6000819050919050565b60006143a361439e614399846133c6565b61437e565b6133c6565b9050919050565b6000819050919050565b6143bd83614388565b6143d16143c9826143aa565b84845461432c565b825550505050565b600090565b6143e66143d9565b6143f18184846143b4565b505050565b5b818110156144155761440a6000826143de565b6001810190506143f7565b5050565b601f82111561445a5761442b816142fa565b6144348461430f565b81016020851015614443578190505b61445761444f8561430f565b8301826143f6565b50505b505050565b600082821c905092915050565b600061447d6000198460080261445f565b1980831691505092915050565b6000614496838361446c565b9150826002028217905092915050565b6144af82613336565b67ffffffffffffffff8111156144c8576144c76137fb565b5b6144d28254613c3e565b6144dd828285614419565b600060209050601f83116001811461451057600084156144fe578287015190505b614508858261448a565b865550614570565b601f19841661451e866142fa565b60005b8281101561454657848901518255600182019150602085019450602081019050614521565b86831015614563578489015161455f601f89168261446c565b8355505b6001600288020188555050505b505050505050565b600081519050919050565b600082825260208201905092915050565b600061459f82614578565b6145a98185614583565b93506145b9818560208601613352565b6145c28161337c565b840191505092915050565b60006080820190506145e26000830187613575565b6145ef6020830186613575565b6145fc604083018561368b565b818103606083015261460e8184614594565b905095945050505050565b600081519050614628816132a7565b92915050565b60006020828403121561464457614643613271565b5b600061465284828501614619565b91505092915050565b7f4e487b7100000000000000000000000000000000000000000000000000000000600052601260045260246000fd5b6000614695826133c6565b91506146a0836133c6565b92508282019050808211156146b8576146b7614268565b5b92915050565b60006146c9826133c6565b91506146d4836133c6565b9250826146e4576146e361465b565b5b828204905092915050565b60006146fa826133c6565b9150614705836133c6565b9250828202614713816133c6565b9150828204841483151761472a57614729614268565b5b5092915050565b6000606082019050818103600083015261474b818661348f565b9050818103602083015261475f818561348f565b90508181036040830152614773818461348f565b9050949350505050565b6000614788826133c6565b91507fffffffffffffffffffffffffffffffffffffffffffffffffffffffffffffffff82036147ba576147b9614268565b5b600182019050919050565b6000819050919050565b6147e06147db826133c6565b6147c5565b82525050565b60008160601b9050919050565b60006147fe826147e6565b9050919050565b6000614810826147f3565b9050919050565b61482861482382613563565b614805565b82525050565b600061483a82866147cf565b60208201915061484a8285614817565b60148201915061485a82846147cf565b602082019150819050949350505050565b6000614876826133c6565b9150614881836133c6565b9250826148915761489061465b565b5b828206905092915050565b600060608201905081810360008301526148b6818661348f565b905081810360208301526148ca818561348f565b90506148d9604083018461368b565b949350505050565b600060408201905081810360008301526148fb818561348f565b9050818103602083015261490f818461348f565b90509392505050565b60006060820190508181036000830152614932818661348f565b9050614941602083018561368b565b61494e604083018461368b565b949350505050565b600060408201905061496b6000830185613575565b614978602083018461368b565b9392505050565b7f4e487b7100000000000000000000000000000000000000000000000000000000600052605160045260246000fdfe4142434445464748494a4b4c4d4e4f505152535455565758595a6162636465666768696a6b6c6d6e6f707172737475767778797a303132333435363738392b2f4d696e746564204e465420772f20746f6b656e496420257320616e6420636861726163746572496e646578202573a26469706673582212205bf242a175dadb5e2bb018595c1218255667f94dc74439c57800bfccf117162d64736f6c63430008140033446f6e6520696e697469616c697a696e6720257320772f2048502025732c20696d67202573446f6e6520696e697469616c697a696e6720626f737320257320772f2048502025732c20696d67202573",
  "linkReferences": {},
  "deployedLinkReferences": {}
}