{
  "_format": "hh-sol-artifact-1",
  "contractName": "MyEpicGame",
  "sourceName": "contracts/MyEpicGame.sol",
  "abi": [
    {
      "inputs": [
        {
          "internalType": "string[]",
          "name": "characterNames",
          "type": "string[]"
        },
        {
          "internalType": "string[]",
          "name": "characterImageURIs",
          "type": "string[]"
        },
        {
          "internalType": "uint256[]",
          "name": "characterHp",
          "type": "uint256[]"
        },
        {
          "internalType": "uint256[]",
          "name": "characterAttackDmg",
          "type": "uint256[]"
        },
        {
          "internalType": "string",
          "name": "bossName",
          "type": "string"
        },
        {
          "internalType": "string",
          "name": "bossImageURI",
          "type": "string"
        },
        {
          "internalType": "uint256",
          "name": "bossHp",
          "type": "uint256"
        },
        {
          "internalType": "uint256",
          "name": "bossAttackDamage",
          "type": "uint256"
        }
      ],
      "stateMutability": "nonpayable",
      "type": "constructor"
    },
    {
      "inputs": [
        {
          "internalType": "address",
          "name": "sender",
          "type": "address"
        },
        {
          "internalType": "uint256",
          "name": "tokenId",
          "type": "uint256"
        },
        {
          "internalType": "address",
          "name": "owner",
          "type": "address"
        }
      ],
      "name": "ERC721IncorrectOwner",
      "type": "error"
    },
    {
      "inputs": [
        {
          "internalType": "address",
          "name": "operator",
          "type": "address"
        },
        {
          "internalType": "uint256",
          "name": "tokenId",
          "type": "uint256"
        }
      ],
      "name": "ERC721InsufficientApproval",
      "type": "error"
    },
    {
      "inputs": [
        {
          "internalType": "address",
          "name": "approver",
          "type": "address"
        }
      ],
      "name": "ERC721InvalidApprover",
      "type": "error"
    },
    {
      "inputs": [
        {
          "internalType": "address",
          "name": "operator",
          "type": "address"
        }
      ],
      "name": "ERC721InvalidOperator",
      "type": "error"
    },
    {
      "inputs": [
        {
          "internalType": "address",
          "name": "owner",
          "type": "address"
        }
      ],
      "name": "ERC721InvalidOwner",
      "type": "error"
    },
    {
      "inputs": [
        {
          "internalType": "address",
          "name": "receiver",
          "type": "address"
        }
      ],
      "name": "ERC721InvalidReceiver",
      "type": "error"
    },
    {
      "inputs": [
        {
          "internalType": "address",
          "name": "sender",
          "type": "address"
        }
      ],
      "name": "ERC721InvalidSender",
      "type": "error"
    },
    {
      "inputs": [
        {
          "internalType": "uint256",
          "name": "tokenId",
          "type": "uint256"
        }
      ],
      "name": "ERC721NonexistentToken",
      "type": "error"
    },
    {
      "anonymous": false,
      "inputs": [
        {
          "indexed": true,
          "internalType": "address",
          "name": "owner",
          "type": "address"
        },
        {
          "indexed": true,
          "internalType": "address",
          "name": "approved",
          "type": "address"
        },
        {
          "indexed": true,
          "internalType": "uint256",
          "name": "tokenId",
          "type": "uint256"
        }
      ],
      "name": "Approval",
      "type": "event"
    },
    {
      "anonymous": false,
      "inputs": [
        {
          "indexed": true,
          "internalType": "address",
          "name": "owner",
          "type": "address"
        },
        {
          "indexed": true,
          "internalType": "address",
          "name": "operator",
          "type": "address"
        },
        {
          "indexed": false,
          "internalType": "bool",
          "name": "approved",
          "type": "bool"
        }
      ],
      "name": "ApprovalForAll",
      "type": "event"
    },
    {
      "anonymous": false,
      "inputs": [
        {
          "indexed": false,
          "internalType": "address",
          "name": "sender",
          "type": "address"
        },
        {
          "indexed": false,
          "internalType": "uint256",
          "name": "newBossHp",
          "type": "uint256"
        },
        {
          "indexed": false,
          "internalType": "uint256",
          "name": "newPlayerHp",
          "type": "uint256"
        }
      ],
      "name": "AttackComplete",
      "type": "event"
    },
    {
      "anonymous": false,
      "inputs": [
        {
          "indexed": false,
          "internalType": "address",
          "name": "sender",
          "type": "address"
        },
        {
          "indexed": false,
          "internalType": "uint256",
          "name": "tokenId",
          "type": "uint256"
        },
        {
          "indexed": false,
          "internalType": "uint256",
          "name": "characterIndex",
          "type": "uint256"
        }
      ],
      "name": "CharacterNFTMinted",
      "type": "event"
    },
    {
      "anonymous": false,
      "inputs": [
        {
          "indexed": true,
          "internalType": "address",
          "name": "from",
          "type": "address"
        },
        {
          "indexed": true,
          "internalType": "address",
          "name": "to",
          "type": "address"
        },
        {
          "indexed": true,
          "internalType": "uint256",
          "name": "tokenId",
          "type": "uint256"
        }
      ],
      "name": "Transfer",
      "type": "event"
    },
    {
      "inputs": [
        {
          "internalType": "address",
          "name": "to",
          "type": "address"
        },
        {
          "internalType": "uint256",
          "name": "tokenId",
          "type": "uint256"
        }
      ],
      "name": "approve",
      "outputs": [],
      "stateMutability": "nonpayable",
      "type": "function"
    },
    {
      "inputs": [],
      "name": "attackBoss",
      "outputs": [],
      "stateMutability": "nonpayable",
      "type": "function"
    },
    {
      "inputs": [
        {
          "internalType": "address",
          "name": "owner",
          "type": "address"
        }
      ],
      "name": "balanceOf",
      "outputs": [
        {
          "internalType": "uint256",
          "name": "",
          "type": "uint256"
        }
      ],
      "stateMutability": "view",
      "type": "function"
    },
    {
      "inputs": [],
      "name": "bigBoss",
      "outputs": [
        {
          "internalType": "string",
          "name": "name",
          "type": "string"
        },
        {
          "internalType": "string",
          "name": "imageURI",
          "type": "string"
        },
        {
          "internalType": "uint256",
          "name": "hp",
          "type": "uint256"
        },
        {
          "internalType": "uint256",
          "name": "maxHp",
          "type": "uint256"
        },
        {
          "internalType": "uint256",
          "name": "attackDamage",
          "type": "uint256"
        }
      ],
      "stateMutability": "view",
      "type": "function"
    },
    {
      "inputs": [],
      "name": "checkIfUserHasNFT",
      "outputs": [
        {
          "components": [
            {
              "internalType": "uint256",
              "name": "characterIndex",
              "type": "uint256"
            },
            {
              "internalType": "string",
              "name": "name",
              "type": "string"
            },
            {
              "internalType": "string",
              "name": "imageURI",
              "type": "string"
            },
            {
              "internalType": "uint256",
              "name": "hp",
              "type": "uint256"
            },
            {
              "internalType": "uint256",
              "name": "maxHp",
              "type": "uint256"
            },
            {
              "internalType": "uint256",
              "name": "attackDamage",
              "type": "uint256"
            }
          ],
          "internalType": "struct MyEpicGame.CharacterAttributes",
          "name": "",
          "type": "tuple"
        }
      ],
      "stateMutability": "view",
      "type": "function"
    },
    {
      "inputs": [],
      "name": "getAllDefaultCharacters",
      "outputs": [
        {
          "components": [
            {
              "internalType": "uint256",
              "name": "characterIndex",
              "type": "uint256"
            },
            {
              "internalType": "string",
              "name": "name",
              "type": "string"
            },
            {
              "internalType": "string",
              "name": "imageURI",
              "type": "string"
            },
            {
              "internalType": "uint256",
              "name": "hp",
              "type": "uint256"
            },
            {
              "internalType": "uint256",
              "name": "maxHp",
              "type": "uint256"
            },
            {
              "internalType": "uint256",
              "name": "attackDamage",
              "type": "uint256"
            }
          ],
          "internalType": "struct MyEpicGame.CharacterAttributes[]",
          "name": "",
          "type": "tuple[]"
        }
      ],
      "stateMutability": "view",
      "type": "function"
    },
    {
      "inputs": [
        {
          "internalType": "uint256",
          "name": "tokenId",
          "type": "uint256"
        }
      ],
      "name": "getApproved",
      "outputs": [
        {
          "internalType": "address",
          "name": "",
          "type": "address"
        }
      ],
      "stateMutability": "view",
      "type": "function"
    },
    {
      "inputs": [],
      "name": "getBigBoss",
      "outputs": [
        {
          "components": [
            {
              "internalType": "string",
              "name": "name",
              "type": "string"
            },
            {
              "internalType": "string",
              "name": "imageURI",
              "type": "string"
            },
            {
              "internalType": "uint256",
              "name": "hp",
              "type": "uint256"
            },
            {
              "internalType": "uint256",
              "name": "maxHp",
              "type": "uint256"
            },
            {
              "internalType": "uint256",
              "name": "attackDamage",
              "type": "uint256"
            }
          ],
          "internalType": "struct MyEpicGame.BigBoss",
          "name": "",
          "type": "tuple"
        }
      ],
      "stateMutability": "view",
      "type": "function"
    },
    {
      "inputs": [
        {
          "internalType": "address",
          "name": "owner",
          "type": "address"
        },
        {
          "internalType": "address",
          "name": "operator",
          "type": "address"
        }
      ],
      "name": "isApprovedForAll",
      "outputs": [
        {
          "internalType": "bool",
          "name": "",
          "type": "bool"
        }
      ],
      "stateMutability": "view",
      "type": "function"
    },
    {
      "inputs": [
        {
          "internalType": "uint256",
          "name": "_characterIndex",
          "type": "uint256"
        }
      ],
      "name": "mintCharacterNFT",
      "outputs": [],
      "stateMutability": "nonpayable",
      "type": "function"
    },
    {
      "inputs": [],
      "name": "name",
      "outputs": [
        {
          "internalType": "string",
          "name": "",
          "type": "string"
        }
      ],
      "stateMutability": "view",
      "type": "function"
    },
    {
      "inputs": [
        {
          "internalType": "uint256",
          "name": "",
          "type": "uint256"
        }
      ],
      "name": "nftHolderAttributes",
      "outputs": [
        {
          "internalType": "uint256",
          "name": "characterIndex",
          "type": "uint256"
        },
        {
          "internalType": "string",
          "name": "name",
          "type": "string"
        },
        {
          "internalType": "string",
          "name": "imageURI",
          "type": "string"
        },
        {
          "internalType": "uint256",
          "name": "hp",
          "type": "uint256"
        },
        {
          "internalType": "uint256",
          "name": "maxHp",
          "type": "uint256"
        },
        {
          "internalType": "uint256",
          "name": "attackDamage",
          "type": "uint256"
        }
      ],
      "stateMutability": "view",
      "type": "function"
    },
    {
      "inputs": [
        {
          "internalType": "address",
          "name": "",
          "type": "address"
        }
      ],
      "name": "nftHolders",
      "outputs": [
        {
          "internalType": "uint256",
          "name": "",
          "type": "uint256"
        }
      ],
      "stateMutability": "view",
      "type": "function"
    },
    {
      "inputs": [
        {
          "internalType": "uint256",
          "name": "tokenId",
          "type": "uint256"
        }
      ],
      "name": "ownerOf",
      "outputs": [
        {
          "internalType": "address",
          "name": "",
          "type": "address"
        }
      ],
      "stateMutability": "view",
      "type": "function"
    },
    {
      "inputs": [],
      "name": "reviveCharacter",
      "outputs": [],
      "stateMutability": "nonpayable",
      "type": "function"
    },
    {
      "inputs": [
        {
          "internalType": "address",
          "name": "from",
          "type": "address"
        },
        {
          "internalType": "address",
          "name": "to",
          "type": "address"
        },
        {
          "internalType": "uint256",
          "name": "tokenId",
          "type": "uint256"
        }
      ],
      "name": "safeTransferFrom",
      "outputs": [],
      "stateMutability": "nonpayable",
      "type": "function"
    },
    {
      "inputs": [
        {
          "internalType": "address",
          "name": "from",
          "type": "address"
        },
        {
          "internalType": "address",
          "name": "to",
          "type": "address"
        },
        {
          "internalType": "uint256",
          "name": "tokenId",
          "type": "uint256"
        },
        {
          "internalType": "bytes",
          "name": "data",
          "type": "bytes"
        }
      ],
      "name": "safeTransferFrom",
      "outputs": [],
      "stateMutability": "nonpayable",
      "type": "function"
    },
    {
      "inputs": [
        {
          "internalType": "address",
          "name": "operator",
          "type": "address"
        },
        {
          "internalType": "bool",
          "name": "approved",
          "type": "bool"
        }
      ],
      "name": "setApprovalForAll",
      "outputs": [],
      "stateMutability": "nonpayable",
      "type": "function"
    },
    {
      "inputs": [
        {
          "internalType": "bytes4",
          "name": "interfaceId",
          "type": "bytes4"
        }
      ],
      "name": "supportsInterface",
      "outputs": [
        {
          "internalType": "bool",
          "name": "",
          "type": "bool"
        }
      ],
      "stateMutability": "view",
      "type": "function"
    },
    {
      "inputs": [],
      "name": "symbol",
      "outputs": [
        {
          "internalType": "string",
          "name": "",
          "type": "string"
        }
      ],
      "stateMutability": "view",
      "type": "function"
    },
    {
      "inputs": [
        {
          "internalType": "uint256",
          "name": "_tokenId",
          "type": "uint256"
        }
      ],
      "name": "tokenURI",
      "outputs": [
        {
          "internalType": "string",
          "name": "",
          "type": "string"
        }
      ],
      "stateMutability": "view",
      "type": "function"
    },
    {
      "inputs": [
        {
          "internalType": "address",
          "name": "from",
          "type": "address"
        },
        {
          "internalType": "address",
          "name": "to",
          "type": "address"
        },
        {
          "internalType": "uint256",
          "name": "tokenId",
          "type": "uint256"
        }
      ],
      "name": "transferFrom",
      "outputs": [],
      "stateMutability": "nonpayable",
      "type": "function"
    }
  ],
  "bytecode": "0x60806040526000600f553480156200001657600080fd5b5060405162005bf038038062005bf083398181016040528101906200003c919062000ac2565b6040518060400160405280600681526020017f4865726f657300000000000000000000000000000000000000000000000000008152506040518060400160405280600481526020017f4845524f000000000000000000000000000000000000000000000000000000008152508160009081620000b9919062000e86565b508060019081620000cb919062000e86565b50505060005b8851811015620005d55760076040518060c001604052808381526020018b848151811062000104576200010362000f6d565b5b602002602001015181526020018a848151811062000127576200012662000f6d565b5b602002602001015181526020018984815181106200014a576200014962000f6d565b5b602002602001015181526020018984815181106200016d576200016c62000f6d565b5b6020026020010151815260200188848151811062000190576200018f62000f6d565b5b60200260200101518152509080600181540180825580915050600190039060005260206000209060060201600090919091909150600082015181600001556020820151816001019081620001e5919062000e86565b506040820151816002019081620001fd919062000e86565b50606082015181600301556080820151816004015560a0820151816005015550506040518060a0016040528086815260200185815260200184815260200184815260200183815250600a60008201518160000190816200025e919062000e86565b50602082015181600101908162000276919062000e86565b50604082015181600201556060820151816003015560808201518160040155905050620003f46040518060600160405280602a815260200162005bc6602a9139600a6000018054620002c89062000c7f565b80601f0160208091040260200160405190810160405280929190818152602001828054620002f69062000c7f565b8015620003475780601f106200031b5761010080835404028352916020019162000347565b820191906000526020600020905b8154815290600101906020018083116200032957829003601f168201915b5050505050600a60020154600a6001018054620003649062000c7f565b80601f0160208091040260200160405190810160405280929190818152602001828054620003929062000c7f565b8015620003e35780601f10620003b757610100808354040283529160200191620003e3565b820191906000526020600020905b815481529060010190602001808311620003c557829003601f168201915b5050505050620005f660201b60201c565b6000600782815481106200040d576200040c62000f6d565b5b90600052602060002090600602016040518060c001604052908160008201548152602001600182018054620004429062000c7f565b80601f0160208091040260200160405190810160405280929190818152602001828054620004709062000c7f565b8015620004c15780601f106200049557610100808354040283529160200191620004c1565b820191906000526020600020905b815481529060010190602001808311620004a357829003601f168201915b50505050508152602001600282018054620004dc9062000c7f565b80601f01602080910402602001604051908101604052809291908181526020018280546200050a9062000c7f565b80156200055b5780601f106200052f576101008083540402835291602001916200055b565b820191906000526020600020905b8154815290600101906020018083116200053d57829003601f168201915b5050505050815260200160038201548152602001600482015481526020016005820154815250509050620005bd60405180606001604052806025815260200162005ba160259139826020015183606001518460400151620005f660201b60201c565b50600181620005cd919062000fcb565b9050620000d1565b50620005e86006620006a260201b60201c565b5050505050505050620010fa565b6200069c8484848460405160240162000613949392919062001069565b6040516020818303038152906040527f5d1a971a000000000000000000000000000000000000000000000000000000007bffffffffffffffffffffffffffffffffffffffffffffffffffffffff19166020820180517bffffffffffffffffffffffffffffffffffffffffffffffffffffffff8381831617835250505050620006b860201b60201c565b50505050565b6001816000016000828254019250508190555050565b620006de81620006d9620006e160201b62001f6a176200070260201b60201c565b60201c565b50565b60006a636f6e736f6c652e6c6f679050600080835160208501845afa505050565b6200071660201b6200323d17819050919050565b62000720620010cb565b565b6000604051905090565b600080fd5b600080fd5b600080fd5b6000601f19601f8301169050919050565b7f4e487b7100000000000000000000000000000000000000000000000000000000600052604160045260246000fd5b62000786826200073b565b810181811067ffffffffffffffff82111715620007a857620007a76200074c565b5b80604052505050565b6000620007bd62000722565b9050620007cb82826200077b565b919050565b600067ffffffffffffffff821115620007ee57620007ed6200074c565b5b602082029050602081019050919050565b600080fd5b600080fd5b600067ffffffffffffffff8211156200082757620008266200074c565b5b62000832826200073b565b9050602081019050919050565b60005b838110156200085f57808201518184015260208101905062000842565b60008484015250505050565b6000620008826200087c8462000809565b620007b1565b905082815260208101848484011115620008a157620008a062000804565b5b620008ae8482856200083f565b509392505050565b600082601f830112620008ce57620008cd62000736565b5b8151620008e08482602086016200086b565b91505092915050565b600062000900620008fa84620007d0565b620007b1565b90508083825260208201905060208402830185811115620009265762000925620007ff565b5b835b818110156200097457805167ffffffffffffffff8111156200094f576200094e62000736565b5b8086016200095e8982620008b6565b8552602085019450505060208101905062000928565b5050509392505050565b600082601f83011262000996576200099562000736565b5b8151620009a8848260208601620008e9565b91505092915050565b600067ffffffffffffffff821115620009cf57620009ce6200074c565b5b602082029050602081019050919050565b6000819050919050565b620009f581620009e0565b811462000a0157600080fd5b50565b60008151905062000a1581620009ea565b92915050565b600062000a3262000a2c84620009b1565b620007b1565b9050808382526020820190506020840283018581111562000a585762000a57620007ff565b5b835b8181101562000a85578062000a70888262000a04565b84526020840193505060208101905062000a5a565b5050509392505050565b600082601f83011262000aa75762000aa662000736565b5b815162000ab984826020860162000a1b565b91505092915050565b600080600080600080600080610100898b03121562000ae65762000ae56200072c565b5b600089015167ffffffffffffffff81111562000b075762000b0662000731565b5b62000b158b828c016200097e565b985050602089015167ffffffffffffffff81111562000b395762000b3862000731565b5b62000b478b828c016200097e565b975050604089015167ffffffffffffffff81111562000b6b5762000b6a62000731565b5b62000b798b828c0162000a8f565b965050606089015167ffffffffffffffff81111562000b9d5762000b9c62000731565b5b62000bab8b828c0162000a8f565b955050608089015167ffffffffffffffff81111562000bcf5762000bce62000731565b5b62000bdd8b828c01620008b6565b94505060a089015167ffffffffffffffff81111562000c015762000c0062000731565b5b62000c0f8b828c01620008b6565b93505060c062000c228b828c0162000a04565b92505060e062000c358b828c0162000a04565b9150509295985092959890939650565b600081519050919050565b7f4e487b7100000000000000000000000000000000000000000000000000000000600052602260045260246000fd5b6000600282049050600182168062000c9857607f821691505b60208210810362000cae5762000cad62000c50565b5b50919050565b60008190508160005260206000209050919050565b60006020601f8301049050919050565b600082821b905092915050565b60006008830262000d187fffffffffffffffffffffffffffffffffffffffffffffffffffffffffffffffff8262000cd9565b62000d24868362000cd9565b95508019841693508086168417925050509392505050565b6000819050919050565b600062000d6762000d6162000d5b84620009e0565b62000d3c565b620009e0565b9050919050565b6000819050919050565b62000d838362000d46565b62000d9b62000d928262000d6e565b84845462000ce6565b825550505050565b600090565b62000db262000da3565b62000dbf81848462000d78565b505050565b5b8181101562000de75762000ddb60008262000da8565b60018101905062000dc5565b5050565b601f82111562000e365762000e008162000cb4565b62000e0b8462000cc9565b8101602085101562000e1b578190505b62000e3362000e2a8562000cc9565b83018262000dc4565b50505b505050565b600082821c905092915050565b600062000e5b6000198460080262000e3b565b1980831691505092915050565b600062000e76838362000e48565b9150826002028217905092915050565b62000e918262000c45565b67ffffffffffffffff81111562000ead5762000eac6200074c565b5b62000eb9825462000c7f565b62000ec682828562000deb565b600060209050601f83116001811462000efe576000841562000ee9578287015190505b62000ef5858262000e68565b86555062000f65565b601f19841662000f0e8662000cb4565b60005b8281101562000f385784890151825560018201915060208501945060208101905062000f11565b8683101562000f58578489015162000f54601f89168262000e48565b8355505b6001600288020188555050505b505050505050565b7f4e487b7100000000000000000000000000000000000000000000000000000000600052603260045260246000fd5b7f4e487b7100000000000000000000000000000000000000000000000000000000600052601160045260246000fd5b600062000fd882620009e0565b915062000fe583620009e0565b9250828201905080821115620010005762000fff62000f9c565b5b92915050565b600082825260208201905092915050565b6000620010248262000c45565b62001030818562001006565b9350620010428185602086016200083f565b6200104d816200073b565b840191505092915050565b6200106381620009e0565b82525050565b6000608082019050818103600083015262001085818762001017565b905081810360208301526200109b818662001017565b9050620010ac604083018562001058565b8181036060830152620010c0818462001017565b905095945050505050565b7f4e487b7100000000000000000000000000000000000000000000000000000000600052605160045260246000fd5b614a97806200110a6000396000f3fe608060405234801561001057600080fd5b50600436106101425760003560e01c806398da4c95116100b8578063b953084e1161007c578063b953084e1461037e578063c87b56dd1461039c578063c8cf27f4146103cc578063d4f24c5b146103ea578063e985e9c5146103f4578063f8b81ef71461042457610142565b806398da4c95146102e5578063a22cb4651461031a578063a9c3267914610336578063b45adac114610358578063b88d4fde1461036257610142565b806323b872dd1161010a57806323b872dd146101ff57806342842e0e1461021b5780636352211e1461023757806370a08231146102675780637df124a11461029757806395d89b41146102c757610142565b806301ffc9a7146101475780630665f9611461017757806306fdde0314610195578063081812fc146101b3578063095ea7b3146101e3575b600080fd5b610161600480360381019061015c9190613318565b610440565b60405161016e9190613360565b60405180910390f35b61017f610522565b60405161018c91906134a1565b60405180910390f35b61019d61067e565b6040516101aa919061350d565b60405180910390f35b6101cd60048036038101906101c8919061355b565b610710565b6040516101da91906135c9565b60405180910390f35b6101fd60048036038101906101f89190613610565b61072c565b005b61021960048036038101906102149190613650565b610742565b005b61023560048036038101906102309190613650565b610844565b005b610251600480360381019061024c919061355b565b610864565b60405161025e91906135c9565b60405180910390f35b610281600480360381019061027c91906136a3565b610876565b60405161028e91906136df565b60405180910390f35b6102b160048036038101906102ac91906136a3565b610930565b6040516102be91906136df565b60405180910390f35b6102cf610948565b6040516102dc919061350d565b60405180910390f35b6102ff60048036038101906102fa919061355b565b6109da565b604051610311969594939291906136fa565b60405180910390f35b610334600480360381019061032f9190613795565b610b26565b005b61033e610b3c565b60405161034f9594939291906137d5565b60405180910390f35b610360610c70565b005b61037c6004803603810190610377919061396b565b610d67565b005b610386610d84565b6040516103939190613b40565b60405180910390f35b6103b660048036038101906103b1919061355b565b610f2f565b6040516103c3919061350d565b60405180910390f35b6103d461114a565b6040516103e19190613bf2565b60405180910390f35b6103f2611322565b005b61040e60048036038101906104099190613c14565b611bae565b60405161041b9190613360565b60405180910390f35b61043e6004803603810190610439919061355b565b611c42565b005b60007f80ac58cd000000000000000000000000000000000000000000000000000000007bffffffffffffffffffffffffffffffffffffffffffffffffffffffff1916827bffffffffffffffffffffffffffffffffffffffffffffffffffffffff1916148061050b57507f5b5e139f000000000000000000000000000000000000000000000000000000007bffffffffffffffffffffffffffffffffffffffffffffffffffffffff1916827bffffffffffffffffffffffffffffffffffffffffffffffffffffffff1916145b8061051b575061051a82611f8b565b5b9050919050565b61052a613247565b600a6040518060a001604052908160008201805461054790613c83565b80601f016020809104026020016040519081016040528092919081815260200182805461057390613c83565b80156105c05780601f10610595576101008083540402835291602001916105c0565b820191906000526020600020905b8154815290600101906020018083116105a357829003601f168201915b505050505081526020016001820180546105d990613c83565b80601f016020809104026020016040519081016040528092919081815260200182805461060590613c83565b80156106525780601f1061062757610100808354040283529160200191610652565b820191906000526020600020905b81548152906001019060200180831161063557829003601f168201915b505050505081526020016002820154815260200160038201548152602001600482015481525050905090565b60606000805461068d90613c83565b80601f01602080910402602001604051908101604052809291908181526020018280546106b990613c83565b80156107065780601f106106db57610100808354040283529160200191610706565b820191906000526020600020905b8154815290600101906020018083116106e957829003601f168201915b5050505050905090565b600061071b82611ff5565b506107258261207d565b9050919050565b61073e82826107396120ba565b6120c2565b5050565b600073ffffffffffffffffffffffffffffffffffffffff168273ffffffffffffffffffffffffffffffffffffffff16036107b45760006040517f64a0ae920000000000000000000000000000000000000000000000000000000081526004016107ab91906135c9565b60405180910390fd5b60006107c883836107c36120ba565b6120d4565b90508373ffffffffffffffffffffffffffffffffffffffff168173ffffffffffffffffffffffffffffffffffffffff161461083e578382826040517f64283d7b00000000000000000000000000000000000000000000000000000000815260040161083593929190613cb4565b60405180910390fd5b50505050565b61085f83838360405180602001604052806000815250610d67565b505050565b600061086f82611ff5565b9050919050565b60008073ffffffffffffffffffffffffffffffffffffffff168273ffffffffffffffffffffffffffffffffffffffff16036108e95760006040517f89c62b640000000000000000000000000000000000000000000000000000000081526004016108e091906135c9565b60405180910390fd5b600360008373ffffffffffffffffffffffffffffffffffffffff1673ffffffffffffffffffffffffffffffffffffffff168152602001908152602001600020549050919050565b60096020528060005260406000206000915090505481565b60606001805461095790613c83565b80601f016020809104026020016040519081016040528092919081815260200182805461098390613c83565b80156109d05780601f106109a5576101008083540402835291602001916109d0565b820191906000526020600020905b8154815290600101906020018083116109b357829003601f168201915b5050505050905090565b6008602052806000526040600020600091509050806000015490806001018054610a0390613c83565b80601f0160208091040260200160405190810160405280929190818152602001828054610a2f90613c83565b8015610a7c5780601f10610a5157610100808354040283529160200191610a7c565b820191906000526020600020905b815481529060010190602001808311610a5f57829003601f168201915b505050505090806002018054610a9190613c83565b80601f0160208091040260200160405190810160405280929190818152602001828054610abd90613c83565b8015610b0a5780601f10610adf57610100808354040283529160200191610b0a565b820191906000526020600020905b815481529060010190602001808311610aed57829003601f168201915b5050505050908060030154908060040154908060050154905086565b610b38610b316120ba565b83836122ee565b5050565b600a806000018054610b4d90613c83565b80601f0160208091040260200160405190810160405280929190818152602001828054610b7990613c83565b8015610bc65780601f10610b9b57610100808354040283529160200191610bc6565b820191906000526020600020905b815481529060010190602001808311610ba957829003601f168201915b505050505090806001018054610bdb90613c83565b80601f0160208091040260200160405190810160405280929190818152602001828054610c0790613c83565b8015610c545780601f10610c2957610100808354040283529160200191610c54565b820191906000526020600020905b815481529060010190602001808311610c3757829003601f168201915b5050505050908060020154908060030154908060040154905085565b6000600960003373ffffffffffffffffffffffffffffffffffffffff1673ffffffffffffffffffffffffffffffffffffffff16815260200190815260200160002054905060006008600083815260200190815260200160002090506000816003015414610d12576040517f08c379a0000000000000000000000000000000000000000000000000000000008152600401610d0990613d5d565b60405180910390fd5b806004015481600301819055507f32bd565ee3f2cb5ddd742bbecd6048d3e9abe90b3827a40c2b72d232e71e3c9d33600a600201548360030154604051610d5b93929190613d7d565b60405180910390a15050565b610d72848484610742565b610d7e8484848461245d565b50505050565b60606007805480602002602001604051908101604052809291908181526020016000905b82821015610f2657838290600052602060002090600602016040518060c001604052908160008201548152602001600182018054610de590613c83565b80601f0160208091040260200160405190810160405280929190818152602001828054610e1190613c83565b8015610e5e5780601f10610e3357610100808354040283529160200191610e5e565b820191906000526020600020905b815481529060010190602001808311610e4157829003601f168201915b50505050508152602001600282018054610e7790613c83565b80601f0160208091040260200160405190810160405280929190818152602001828054610ea390613c83565b8015610ef05780601f10610ec557610100808354040283529160200191610ef0565b820191906000526020600020905b815481529060010190602001808311610ed357829003601f168201915b50505050508152602001600382015481526020016004820154815260200160058201548152505081526020019060010190610da8565b50505050905090565b60606000600860008481526020019081526020016000206040518060c001604052908160008201548152602001600182018054610f6b90613c83565b80601f0160208091040260200160405190810160405280929190818152602001828054610f9790613c83565b8015610fe45780601f10610fb957610100808354040283529160200191610fe4565b820191906000526020600020905b815481529060010190602001808311610fc757829003601f168201915b50505050508152602001600282018054610ffd90613c83565b80601f016020809104026020016040519081016040528092919081815260200182805461102990613c83565b80156110765780601f1061104b57610100808354040283529160200191611076565b820191906000526020600020905b81548152906001019060200180831161105957829003601f168201915b505050505081526020016003820154815260200160048201548152602001600582015481525050905060006110ae8260600151612614565b905060006110bf8360800151612614565b905060006110d08460a00151612614565b9050600061111685602001516110e589612614565b87604001518787876040516020016111029695949392919061409c565b6040516020818303038152906040526126e2565b905060008160405160200161112b919061418d565b6040516020818303038152906040529050809650505050505050919050565b611152613276565b6000600960003373ffffffffffffffffffffffffffffffffffffffff1673ffffffffffffffffffffffffffffffffffffffff168152602001908152602001600020549050600081111561131157600860008281526020019081526020016000206040518060c0016040529081600082015481526020016001820180546111d790613c83565b80601f016020809104026020016040519081016040528092919081815260200182805461120390613c83565b80156112505780601f1061122557610100808354040283529160200191611250565b820191906000526020600020905b81548152906001019060200180831161123357829003601f168201915b5050505050815260200160028201805461126990613c83565b80601f016020809104026020016040519081016040528092919081815260200182805461129590613c83565b80156112e25780601f106112b7576101008083540402835291602001916112e2565b820191906000526020600020905b8154815290600101906020018083116112c557829003601f168201915b50505050508152602001600382015481526020016004820154815260200160058201548152505091505061131f565b611319613276565b80925050505b90565b6000600960003373ffffffffffffffffffffffffffffffffffffffff1673ffffffffffffffffffffffffffffffffffffffff168152602001908152602001600020549050600060086000838152602001908152602001600020905060008160030154116113c4576040517f08c379a00000000000000000000000000000000000000000000000000000000081526004016113bb906141fb565b60405180910390fd5b6000600a600201541161140c576040517f08c379a00000000000000000000000000000000000000000000000000000000081526004016114039061428d565b60405180910390fd5b6115656040518060400160405280601481526020017f25732061747461636b73207468652025732e2e2e00000000000000000000000081525082600101805461145490613c83565b80601f016020809104026020016040519081016040528092919081815260200182805461148090613c83565b80156114cd5780601f106114a2576101008083540402835291602001916114cd565b820191906000526020600020905b8154815290600101906020018083116114b057829003601f168201915b5050505050600a60000180546114e290613c83565b80601f016020809104026020016040519081016040528092919081815260200182805461150e90613c83565b801561155b5780601f106115305761010080835404028352916020019161155b565b820191906000526020600020905b81548152906001019060200180831161153e57829003601f168201915b5050505050612879565b8060050154600a6002015410156115c4576000600a600201819055506115bf6040518060400160405280601181526020017f54686520626f7373206973206465616421000000000000000000000000000000815250612918565b6117dc565b60056115d0600a6129b1565b111561170f578060050154600a600201546115eb91906142dc565b600a600201819055506116c66040518060400160405280600c81526020017f426f7373204850203d2025730000000000000000000000000000000000000000815250600a600001805461163d90613c83565b80601f016020809104026020016040519081016040528092919081815260200182805461166990613c83565b80156116b65780601f1061168b576101008083540402835291602001916116b6565b820191906000526020600020905b81548152906001019060200180831161169957829003601f168201915b5050505050600a60020154612a0d565b7f32bd565ee3f2cb5ddd742bbecd6048d3e9abe90b3827a40c2b72d232e71e3c9d33600a60020154836003015460405161170293929190613d7d565b60405180910390a16117db565b6117da6040518060400160405280600b81526020017f2573206d6973736564210a00000000000000000000000000000000000000000081525082600101805461175790613c83565b80601f016020809104026020016040519081016040528092919081815260200182805461178390613c83565b80156117d05780601f106117a5576101008083540402835291602001916117d0565b820191906000526020600020905b8154815290600101906020018083116117b357829003601f168201915b5050505050612aac565b5b5b6119356040518060400160405280601081526020017f25732061747461636b732025732e2e2e00000000000000000000000000000000815250600a600001805461182590613c83565b80601f016020809104026020016040519081016040528092919081815260200182805461185190613c83565b801561189e5780601f106118735761010080835404028352916020019161189e565b820191906000526020600020905b81548152906001019060200180831161188157829003601f168201915b50505050508360010180546118b290613c83565b80601f01602080910402602001604051908101604052809291908181526020018280546118de90613c83565b801561192b5780601f106119005761010080835404028352916020019161192b565b820191906000526020600020905b81548152906001019060200180831161190e57829003601f168201915b5050505050612879565b600a6004015481600301541015611993576000816003018190555061198e6040518060400160405280601381526020017f54686520706c6179657220697320646561642100000000000000000000000000815250612918565b611baa565b600461199f600a6129b1565b1115611adc57600a6004015481600301546119ba91906142dc565b8160030181905550611a936040518060400160405280600e81526020017f506c61796572204850203d202573000000000000000000000000000000000000815250600a6000018054611a0b90613c83565b80601f0160208091040260200160405190810160405280929190818152602001828054611a3790613c83565b8015611a845780601f10611a5957610100808354040283529160200191611a84565b820191906000526020600020905b815481529060010190602001808311611a6757829003601f168201915b50505050508360030154612a0d565b7f32bd565ee3f2cb5ddd742bbecd6048d3e9abe90b3827a40c2b72d232e71e3c9d33600a600201548360030154604051611acf93929190613d7d565b60405180910390a1611ba9565b611ba86040518060400160405280600b81526020017f2573206d6973736564210a000000000000000000000000000000000000000000815250600a6000018054611b2590613c83565b80601f0160208091040260200160405190810160405280929190818152602001828054611b5190613c83565b8015611b9e5780601f10611b7357610100808354040283529160200191611b9e565b820191906000526020600020905b815481529060010190602001808311611b8157829003601f168201915b5050505050612aac565b5b5b5050565b6000600560008473ffffffffffffffffffffffffffffffffffffffff1673ffffffffffffffffffffffffffffffffffffffff16815260200190815260200160002060008373ffffffffffffffffffffffffffffffffffffffff1673ffffffffffffffffffffffffffffffffffffffff16815260200190815260200160002060009054906101000a900460ff16905092915050565b6000611c4e6006612b48565b9050611c5a3382612b56565b6040518060c0016040528083815260200160078481548110611c7f57611c7e614310565b5b90600052602060002090600602016001018054611c9b90613c83565b80601f0160208091040260200160405190810160405280929190818152602001828054611cc790613c83565b8015611d145780601f10611ce957610100808354040283529160200191611d14565b820191906000526020600020905b815481529060010190602001808311611cf757829003601f168201915b5050505050815260200160078481548110611d3257611d31614310565b5b90600052602060002090600602016002018054611d4e90613c83565b80601f0160208091040260200160405190810160405280929190818152602001828054611d7a90613c83565b8015611dc75780601f10611d9c57610100808354040283529160200191611dc7565b820191906000526020600020905b815481529060010190602001808311611daa57829003601f168201915b5050505050815260200160078481548110611de557611de4614310565b5b906000526020600020906006020160030154815260200160078481548110611e1057611e0f614310565b5b906000526020600020906006020160040154815260200160078481548110611e3b57611e3a614310565b5b90600052602060002090600602016005015481525060086000838152602001908152602001600020600082015181600001556020820151816001019081611e8291906144eb565b506040820151816002019081611e9891906144eb565b50606082015181600301556080820151816004015560a08201518160050155905050611edd6040518060600160405280602e8152602001614a34602e91398284612b74565b80600960003373ffffffffffffffffffffffffffffffffffffffff1673ffffffffffffffffffffffffffffffffffffffff16815260200190815260200160002081905550611f2b6006612c13565b7f4bc303fd457a97b4691b9af582ce71868a3d258638c8d4f8c60988a0f0bfb8cd338284604051611f5e93929190613d7d565b60405180910390a15050565b60006a636f6e736f6c652e6c6f679050600080835160208501845afa505050565b60007f01ffc9a7000000000000000000000000000000000000000000000000000000007bffffffffffffffffffffffffffffffffffffffffffffffffffffffff1916827bffffffffffffffffffffffffffffffffffffffffffffffffffffffff1916149050919050565b60008061200183612c29565b9050600073ffffffffffffffffffffffffffffffffffffffff168173ffffffffffffffffffffffffffffffffffffffff160361207457826040517f7e27328900000000000000000000000000000000000000000000000000000000815260040161206b91906136df565b60405180910390fd5b80915050919050565b60006004600083815260200190815260200160002060009054906101000a900473ffffffffffffffffffffffffffffffffffffffff169050919050565b600033905090565b6120cf8383836001612c66565b505050565b6000806120e084612c29565b9050600073ffffffffffffffffffffffffffffffffffffffff168373ffffffffffffffffffffffffffffffffffffffff161461212257612121818486612e2b565b5b600073ffffffffffffffffffffffffffffffffffffffff168173ffffffffffffffffffffffffffffffffffffffff16146121b357612164600085600080612c66565b6001600360008373ffffffffffffffffffffffffffffffffffffffff1673ffffffffffffffffffffffffffffffffffffffff168152602001908152602001600020600082825403925050819055505b600073ffffffffffffffffffffffffffffffffffffffff168573ffffffffffffffffffffffffffffffffffffffff1614612236576001600360008773ffffffffffffffffffffffffffffffffffffffff1673ffffffffffffffffffffffffffffffffffffffff168152602001908152602001600020600082825401925050819055505b846002600086815260200190815260200160002060006101000a81548173ffffffffffffffffffffffffffffffffffffffff021916908373ffffffffffffffffffffffffffffffffffffffff160217905550838573ffffffffffffffffffffffffffffffffffffffff168273ffffffffffffffffffffffffffffffffffffffff167fddf252ad1be2c89b69c2b068fc378daa952ba7f163c4a11628f55a4df523b3ef60405160405180910390a4809150509392505050565b600073ffffffffffffffffffffffffffffffffffffffff168273ffffffffffffffffffffffffffffffffffffffff160361235f57816040517f5b08ba1800000000000000000000000000000000000000000000000000000000815260040161235691906135c9565b60405180910390fd5b80600560008573ffffffffffffffffffffffffffffffffffffffff1673ffffffffffffffffffffffffffffffffffffffff16815260200190815260200160002060008473ffffffffffffffffffffffffffffffffffffffff1673ffffffffffffffffffffffffffffffffffffffff16815260200190815260200160002060006101000a81548160ff0219169083151502179055508173ffffffffffffffffffffffffffffffffffffffff168373ffffffffffffffffffffffffffffffffffffffff167f17307eab39ab6107e8899845ad3d59bd9653f200f220920489ca2b5937696c31836040516124509190613360565b60405180910390a3505050565b60008373ffffffffffffffffffffffffffffffffffffffff163b111561260e578273ffffffffffffffffffffffffffffffffffffffff1663150b7a026124a16120ba565b8685856040518563ffffffff1660e01b81526004016124c39493929190614612565b6020604051808303816000875af19250505080156124ff57506040513d601f19601f820116820180604052508101906124fc9190614673565b60015b612583573d806000811461252f576040519150601f19603f3d011682016040523d82523d6000602084013e612534565b606091505b50600081510361257b57836040517f64a0ae9200000000000000000000000000000000000000000000000000000000815260040161257291906135c9565b60405180910390fd5b805181602001fd5b63150b7a0260e01b7bffffffffffffffffffffffffffffffffffffffffffffffffffffffff1916817bffffffffffffffffffffffffffffffffffffffffffffffffffffffff19161461260c57836040517f64a0ae9200000000000000000000000000000000000000000000000000000000815260040161260391906135c9565b60405180910390fd5b505b50505050565b60606000600161262384612eef565b01905060008167ffffffffffffffff81111561264257612641613840565b5b6040519080825280601f01601f1916602001820160405280156126745781602001600182028036833780820191505090505b509050600082602001820190505b6001156126d7578080600190039150507f3031323334353637383961626364656600000000000000000000000000000000600a86061a8153600a85816126cb576126ca6146a0565b5b04945060008503612682575b819350505050919050565b60606000825190506000810361270a5760405180602001604052806000815250915050612874565b6000600360028361271b91906146cf565b6127259190614703565b60046127319190614734565b9050600060208261274291906146cf565b67ffffffffffffffff81111561275b5761275a613840565b5b6040519080825280601f01601f19166020018201604052801561278d5781602001600182028036833780820191505090505b50905060006040518060600160405280604081526020016149f4604091399050600181016020830160005b868110156128315760038101905062ffffff818a015116603f8160121c168401518060081b905060ff603f83600c1c1686015116810190508060081b905060ff603f8360061c1686015116810190508060081b905060ff603f831686015116810190508060e01b905080845260048401935050506127b8565b50600386066001811461284b576002811461285b57612866565b613d3d60f01b6002830352612866565b603d60f81b60018303525b508484525050819450505050505b919050565b61291383838360405160240161289193929190614776565b6040516020818303038152906040527f2ced7cef000000000000000000000000000000000000000000000000000000007bffffffffffffffffffffffffffffffffffffffffffffffffffffffff19166020820180517bffffffffffffffffffffffffffffffffffffffffffffffffffffffff8381831617835250505050613042565b505050565b6129ae8160405160240161292c919061350d565b6040516020818303038152906040527f41304fac000000000000000000000000000000000000000000000000000000007bffffffffffffffffffffffffffffffffffffffffffffffffffffffff19166020820180517bffffffffffffffffffffffffffffffffffffffffffffffffffffffff8381831617835250505050613042565b50565b6000600f60008154809291906129c6906147c2565b9190505550814233600f546040516020016129e393929190614873565b6040516020818303038152906040528051906020012060001c612a0691906148b0565b9050919050565b612aa7838383604051602401612a25939291906148e1565b6040516020818303038152906040527f5821efa1000000000000000000000000000000000000000000000000000000007bffffffffffffffffffffffffffffffffffffffffffffffffffffffff19166020820180517bffffffffffffffffffffffffffffffffffffffffffffffffffffffff8381831617835250505050613042565b505050565b612b448282604051602401612ac2929190614926565b6040516020818303038152906040527f4b5c4277000000000000000000000000000000000000000000000000000000007bffffffffffffffffffffffffffffffffffffffffffffffffffffffff19166020820180517bffffffffffffffffffffffffffffffffffffffffffffffffffffffff8381831617835250505050613042565b5050565b600081600001549050919050565b612b7082826040518060200160405280600081525061305c565b5050565b612c0e838383604051602401612b8c9392919061495d565b6040516020818303038152906040527fca47c4eb000000000000000000000000000000000000000000000000000000007bffffffffffffffffffffffffffffffffffffffffffffffffffffffff19166020820180517bffffffffffffffffffffffffffffffffffffffffffffffffffffffff8381831617835250505050613042565b505050565b6001816000016000828254019250508190555050565b60006002600083815260200190815260200160002060009054906101000a900473ffffffffffffffffffffffffffffffffffffffff169050919050565b8080612c9f5750600073ffffffffffffffffffffffffffffffffffffffff168273ffffffffffffffffffffffffffffffffffffffff1614155b15612dd3576000612caf84611ff5565b9050600073ffffffffffffffffffffffffffffffffffffffff168373ffffffffffffffffffffffffffffffffffffffff1614158015612d1a57508273ffffffffffffffffffffffffffffffffffffffff168173ffffffffffffffffffffffffffffffffffffffff1614155b8015612d2d5750612d2b8184611bae565b155b15612d6f57826040517fa9fbf51f000000000000000000000000000000000000000000000000000000008152600401612d6691906135c9565b60405180910390fd5b8115612dd157838573ffffffffffffffffffffffffffffffffffffffff168273ffffffffffffffffffffffffffffffffffffffff167f8c5be1e5ebec7d5bd14f71427d1e84f3dd0314c0f7b2291e5b200ac8c7c3b92560405160405180910390a45b505b836004600085815260200190815260200160002060006101000a81548173ffffffffffffffffffffffffffffffffffffffff021916908373ffffffffffffffffffffffffffffffffffffffff16021790555050505050565b612e36838383613078565b612eea57600073ffffffffffffffffffffffffffffffffffffffff168373ffffffffffffffffffffffffffffffffffffffff1603612eab57806040517f7e273289000000000000000000000000000000000000000000000000000000008152600401612ea291906136df565b60405180910390fd5b81816040517f177e802f000000000000000000000000000000000000000000000000000000008152600401612ee192919061499b565b60405180910390fd5b505050565b600080600090507a184f03e93ff9f4daa797ed6e38ed64bf6a1f0100000000000000008310612f4d577a184f03e93ff9f4daa797ed6e38ed64bf6a1f0100000000000000008381612f4357612f426146a0565b5b0492506040810190505b6d04ee2d6d415b85acef81000000008310612f8a576d04ee2d6d415b85acef81000000008381612f8057612f7f6146a0565b5b0492506020810190505b662386f26fc100008310612fb957662386f26fc100008381612faf57612fae6146a0565b5b0492506010810190505b6305f5e1008310612fe2576305f5e1008381612fd857612fd76146a0565b5b0492506008810190505b6127108310613007576127108381612ffd57612ffc6146a0565b5b0492506004810190505b6064831061302a57606483816130205761301f6146a0565b5b0492506002810190505b600a8310613039576001810190505b80915050919050565b61305981613051611f6a613139565b63ffffffff16565b50565b6130668383613144565b613073600084848461245d565b505050565b60008073ffffffffffffffffffffffffffffffffffffffff168373ffffffffffffffffffffffffffffffffffffffff161415801561313057508273ffffffffffffffffffffffffffffffffffffffff168473ffffffffffffffffffffffffffffffffffffffff1614806130f157506130f08484611bae565b5b8061312f57508273ffffffffffffffffffffffffffffffffffffffff166131178361207d565b73ffffffffffffffffffffffffffffffffffffffff16145b5b90509392505050565b61323d819050919050565b600073ffffffffffffffffffffffffffffffffffffffff168273ffffffffffffffffffffffffffffffffffffffff16036131b65760006040517f64a0ae920000000000000000000000000000000000000000000000000000000081526004016131ad91906135c9565b60405180910390fd5b60006131c4838360006120d4565b9050600073ffffffffffffffffffffffffffffffffffffffff168173ffffffffffffffffffffffffffffffffffffffff16146132385760006040517f73c6ac6e00000000000000000000000000000000000000000000000000000000815260040161322f91906135c9565b60405180910390fd5b505050565b6132456149c4565b565b6040518060a0016040528060608152602001606081526020016000815260200160008152602001600081525090565b6040518060c001604052806000815260200160608152602001606081526020016000815260200160008152602001600081525090565b6000604051905090565b600080fd5b600080fd5b60007fffffffff0000000000000000000000000000000000000000000000000000000082169050919050565b6132f5816132c0565b811461330057600080fd5b50565b600081359050613312816132ec565b92915050565b60006020828403121561332e5761332d6132b6565b5b600061333c84828501613303565b91505092915050565b60008115159050919050565b61335a81613345565b82525050565b60006020820190506133756000830184613351565b92915050565b600081519050919050565b600082825260208201905092915050565b60005b838110156133b557808201518184015260208101905061339a565b60008484015250505050565b6000601f19601f8301169050919050565b60006133dd8261337b565b6133e78185613386565b93506133f7818560208601613397565b613400816133c1565b840191505092915050565b6000819050919050565b61341e8161340b565b82525050565b600060a083016000830151848203600086015261344182826133d2565b9150506020830151848203602086015261345b82826133d2565b91505060408301516134706040860182613415565b5060608301516134836060860182613415565b5060808301516134966080860182613415565b508091505092915050565b600060208201905081810360008301526134bb8184613424565b905092915050565b600082825260208201905092915050565b60006134df8261337b565b6134e981856134c3565b93506134f9818560208601613397565b613502816133c1565b840191505092915050565b6000602082019050818103600083015261352781846134d4565b905092915050565b6135388161340b565b811461354357600080fd5b50565b6000813590506135558161352f565b92915050565b600060208284031215613571576135706132b6565b5b600061357f84828501613546565b91505092915050565b600073ffffffffffffffffffffffffffffffffffffffff82169050919050565b60006135b382613588565b9050919050565b6135c3816135a8565b82525050565b60006020820190506135de60008301846135ba565b92915050565b6135ed816135a8565b81146135f857600080fd5b50565b60008135905061360a816135e4565b92915050565b60008060408385031215613627576136266132b6565b5b6000613635858286016135fb565b925050602061364685828601613546565b9150509250929050565b600080600060608486031215613669576136686132b6565b5b6000613677868287016135fb565b9350506020613688868287016135fb565b925050604061369986828701613546565b9150509250925092565b6000602082840312156136b9576136b86132b6565b5b60006136c7848285016135fb565b91505092915050565b6136d98161340b565b82525050565b60006020820190506136f460008301846136d0565b92915050565b600060c08201905061370f60008301896136d0565b818103602083015261372181886134d4565b9050818103604083015261373581876134d4565b905061374460608301866136d0565b61375160808301856136d0565b61375e60a08301846136d0565b979650505050505050565b61377281613345565b811461377d57600080fd5b50565b60008135905061378f81613769565b92915050565b600080604083850312156137ac576137ab6132b6565b5b60006137ba858286016135fb565b92505060206137cb85828601613780565b9150509250929050565b600060a08201905081810360008301526137ef81886134d4565b9050818103602083015261380381876134d4565b905061381260408301866136d0565b61381f60608301856136d0565b61382c60808301846136d0565b9695505050505050565b600080fd5b600080fd5b7f4e487b7100000000000000000000000000000000000000000000000000000000600052604160045260246000fd5b613878826133c1565b810181811067ffffffffffffffff8211171561389757613896613840565b5b80604052505050565b60006138aa6132ac565b90506138b6828261386f565b919050565b600067ffffffffffffffff8211156138d6576138d5613840565b5b6138df826133c1565b9050602081019050919050565b82818337600083830152505050565b600061390e613909846138bb565b6138a0565b90508281526020810184848401111561392a5761392961383b565b5b6139358482856138ec565b509392505050565b600082601f83011261395257613951613836565b5b81356139628482602086016138fb565b91505092915050565b60008060008060808587031215613985576139846132b6565b5b6000613993878288016135fb565b94505060206139a4878288016135fb565b93505060406139b587828801613546565b925050606085013567ffffffffffffffff8111156139d6576139d56132bb565b5b6139e28782880161393d565b91505092959194509250565b600081519050919050565b600082825260208201905092915050565b6000819050602082019050919050565b600060c083016000830151613a326000860182613415565b5060208301518482036020860152613a4a82826133d2565b91505060408301518482036040860152613a6482826133d2565b9150506060830151613a796060860182613415565b506080830151613a8c6080860182613415565b5060a0830151613a9f60a0860182613415565b508091505092915050565b6000613ab68383613a1a565b905092915050565b6000602082019050919050565b6000613ad6826139ee565b613ae081856139f9565b935083602082028501613af285613a0a565b8060005b85811015613b2e5784840389528151613b0f8582613aaa565b9450613b1a83613abe565b925060208a01995050600181019050613af6565b50829750879550505050505092915050565b60006020820190508181036000830152613b5a8184613acb565b905092915050565b600060c083016000830151613b7a6000860182613415565b5060208301518482036020860152613b9282826133d2565b91505060408301518482036040860152613bac82826133d2565b9150506060830151613bc16060860182613415565b506080830151613bd46080860182613415565b5060a0830151613be760a0860182613415565b508091505092915050565b60006020820190508181036000830152613c0c8184613b62565b905092915050565b60008060408385031215613c2b57613c2a6132b6565b5b6000613c39858286016135fb565b9250506020613c4a858286016135fb565b9150509250929050565b7f4e487b7100000000000000000000000000000000000000000000000000000000600052602260045260246000fd5b60006002820490506001821680613c9b57607f821691505b602082108103613cae57613cad613c54565b5b50919050565b6000606082019050613cc960008301866135ba565b613cd660208301856136d0565b613ce360408301846135ba565b949350505050565b7f4572726f723a204f6e6c79206465616420636861726163746572732063616e2060008201527f6265207265766976656400000000000000000000000000000000000000000000602082015250565b6000613d47602a836134c3565b9150613d5282613ceb565b604082019050919050565b60006020820190508181036000830152613d7681613d3a565b9050919050565b6000606082019050613d9260008301866135ba565b613d9f60208301856136d0565b613dac60408301846136d0565b949350505050565b600081905092915050565b7f7b226e616d65223a202200000000000000000000000000000000000000000000600082015250565b6000613df5600a83613db4565b9150613e0082613dbf565b600a82019050919050565b6000613e168261337b565b613e208185613db4565b9350613e30818560208601613397565b80840191505092915050565b7f202d2d204e465420233a20000000000000000000000000000000000000000000600082015250565b6000613e72600b83613db4565b9150613e7d82613e3c565b600b82019050919050565b7f222c20226465736372697074696f6e223a20225468697320697320616e204e4660008201527f542074686174206c6574732070656f706c6520706c617920696e20746865206760208201527f616d65204d657461536c6179657221222c2022696d616765223a202200000000604082015250565b6000613f0a605c83613db4565b9150613f1582613e88565b605c82019050919050565b7f222c202261747472696275746573223a205b207b202274726169745f7479706560008201527f223a20224865616c746820506f696e7473222c202276616c7565223a20000000602082015250565b6000613f7c603d83613db4565b9150613f8782613f20565b603d82019050919050565b7f2c20226d61785f76616c7565223a000000000000000000000000000000000000600082015250565b6000613fc8600e83613db4565b9150613fd382613f92565b600e82019050919050565b7f7d2c207b202274726169745f74797065223a202241747461636b2044616d616760008201527f65222c202276616c7565223a2000000000000000000000000000000000000000602082015250565b600061403a602d83613db4565b915061404582613fde565b602d82019050919050565b7f7d205d7d00000000000000000000000000000000000000000000000000000000600082015250565b6000614086600483613db4565b915061409182614050565b600482019050919050565b60006140a782613de8565b91506140b38289613e0b565b91506140be82613e65565b91506140ca8288613e0b565b91506140d582613efd565b91506140e18287613e0b565b91506140ec82613f6f565b91506140f88286613e0b565b915061410382613fbb565b915061410f8285613e0b565b915061411a8261402d565b91506141268284613e0b565b915061413182614079565b9150819050979650505050505050565b7f646174613a6170706c69636174696f6e2f6a736f6e3b6261736536342c000000600082015250565b6000614177601d83613db4565b915061418282614141565b601d82019050919050565b60006141988261416a565b91506141a48284613e0b565b915081905092915050565b7f536f7272792c20596f75722063686172616374657220697320446561642e2e2e600082015250565b60006141e56020836134c3565b91506141f0826141af565b602082019050919050565b60006020820190508181036000830152614214816141d8565b9050919050565b7f4572726f723a20626f7373206d757374206861766520485020746f206174746160008201527f636b206368617261637465722e00000000000000000000000000000000000000602082015250565b6000614277602d836134c3565b91506142828261421b565b604082019050919050565b600060208201905081810360008301526142a68161426a565b9050919050565b7f4e487b7100000000000000000000000000000000000000000000000000000000600052601160045260246000fd5b60006142e78261340b565b91506142f28361340b565b925082820390508181111561430a576143096142ad565b5b92915050565b7f4e487b7100000000000000000000000000000000000000000000000000000000600052603260045260246000fd5b60008190508160005260206000209050919050565b60006020601f8301049050919050565b600082821b905092915050565b6000600883026143a17fffffffffffffffffffffffffffffffffffffffffffffffffffffffffffffffff82614364565b6143ab8683614364565b95508019841693508086168417925050509392505050565b6000819050919050565b60006143e86143e36143de8461340b565b6143c3565b61340b565b9050919050565b6000819050919050565b614402836143cd565b61441661440e826143ef565b848454614371565b825550505050565b600090565b61442b61441e565b6144368184846143f9565b505050565b5b8181101561445a5761444f600082614423565b60018101905061443c565b5050565b601f82111561449f576144708161433f565b61447984614354565b81016020851015614488578190505b61449c61449485614354565b83018261443b565b50505b505050565b600082821c905092915050565b60006144c2600019846008026144a4565b1980831691505092915050565b60006144db83836144b1565b9150826002028217905092915050565b6144f48261337b565b67ffffffffffffffff81111561450d5761450c613840565b5b6145178254613c83565b61452282828561445e565b600060209050601f8311600181146145555760008415614543578287015190505b61454d85826144cf565b8655506145b5565b601f1984166145638661433f565b60005b8281101561458b57848901518255600182019150602085019450602081019050614566565b868310156145a857848901516145a4601f8916826144b1565b8355505b6001600288020188555050505b505050505050565b600081519050919050565b600082825260208201905092915050565b60006145e4826145bd565b6145ee81856145c8565b93506145fe818560208601613397565b614607816133c1565b840191505092915050565b600060808201905061462760008301876135ba565b61463460208301866135ba565b61464160408301856136d0565b818103606083015261465381846145d9565b905095945050505050565b60008151905061466d816132ec565b92915050565b600060208284031215614689576146886132b6565b5b60006146978482850161465e565b91505092915050565b7f4e487b7100000000000000000000000000000000000000000000000000000000600052601260045260246000fd5b60006146da8261340b565b91506146e58361340b565b92508282019050808211156146fd576146fc6142ad565b5b92915050565b600061470e8261340b565b91506147198361340b565b925082614729576147286146a0565b5b828204905092915050565b600061473f8261340b565b915061474a8361340b565b92508282026147588161340b565b9150828204841483151761476f5761476e6142ad565b5b5092915050565b6000606082019050818103600083015261479081866134d4565b905081810360208301526147a481856134d4565b905081810360408301526147b881846134d4565b9050949350505050565b60006147cd8261340b565b91507fffffffffffffffffffffffffffffffffffffffffffffffffffffffffffffffff82036147ff576147fe6142ad565b5b600182019050919050565b6000819050919050565b6148256148208261340b565b61480a565b82525050565b60008160601b9050919050565b60006148438261482b565b9050919050565b600061485582614838565b9050919050565b61486d614868826135a8565b61484a565b82525050565b600061487f8286614814565b60208201915061488f828561485c565b60148201915061489f8284614814565b602082019150819050949350505050565b60006148bb8261340b565b91506148c68361340b565b9250826148d6576148d56146a0565b5b828206905092915050565b600060608201905081810360008301526148fb81866134d4565b9050818103602083015261490f81856134d4565b905061491e60408301846136d0565b949350505050565b6000604082019050818103600083015261494081856134d4565b9050818103602083015261495481846134d4565b90509392505050565b6000606082019050818103600083015261497781866134d4565b905061498660208301856136d0565b61499360408301846136d0565b949350505050565b60006040820190506149b060008301856135ba565b6149bd60208301846136d0565b9392505050565b7f4e487b7100000000000000000000000000000000000000000000000000000000600052605160045260246000fdfe4142434445464748494a4b4c4d4e4f505152535455565758595a6162636465666768696a6b6c6d6e6f707172737475767778797a303132333435363738392b2f4d696e746564204e465420772f20746f6b656e496420257320616e6420636861726163746572496e646578202573a2646970667358221220c18cfe32779503c5edd2cce15ac1c1df10e0a708218dfdc9c76f7819d774013c64736f6c63430008140033446f6e6520696e697469616c697a696e6720257320772f2048502025732c20696d67202573446f6e6520696e697469616c697a696e6720626f737320257320772f2048502025732c20696d67202573",
  "linkReferences": {},
  "deployedLinkReferences": {}
}